:020000040800F2
:100000002809002041470008111B0008131B0008A5
:10001000171B00081B1B00081F1B00080000000026
:10002000000000000000000000000000231B00088A
:10003000251B000800000000271B0008291B0008E2
:100040005B4700085B4700085B4700085B47000808
:100050005B4700085B4700085B4700085B470008F8
:100060005B4700085B4700085B4700085B470008E8
:100070005B4700085B4700085B4700085B470008D8
:100080005B4700085B4700085B4700085B470008C8
:100090005B4700085B4700085B4700085B470008B8
:1000A0005B470008071F00085B4700085B47000824
:1000B000771D0008A33C00085B4700085B47000869
:1000C0005B4700085B4700085B4700085B47000888
:1000D0005B470008114000085D3200085B470008DC
:1000E0005B4700085B4700085B4700085B47000868
:1000F0005B4700085B4700085B4700085B47000858
:100100005B4700085B4700085B4700085B47000847
:100110005B4700085B4700085B4700085B47000837
:100120005B4700085B4700085B4700085B47000827
:1001300000F002F800F05AF80AA090E8000C82449F
:100140008344AAF10107DA4501D100F04FF8AFF27C
:10015000090EBAE80F0013F0010F18BFFB1A43F0A5
:10016000010318470C8200002C8200000A444FF063
:10017000000C10F8013B13F0070408BF10F8014B06
:100180001D1108BF10F8015B641E05D010F8016B4B
:10019000641E01F8016BF9D113F0080F1EBF10F8AF
:1001A000014BAD1C0C1B09D16D1E58BF01F801CBD2
:1001B000FAD505E014F8016B01F8016B6D1EF9D555
:1001C0009142D6D37047000000230024002500266A
:1001D000103A28BF78C1FBD8520728BF30C148BFAA
:1001E0000B6070471FB51FBD10B510BD06F0B0F90C
:1001F0001146FFF7F7FF01F070FA06F0CEF903B4ED
:10020000FFF7F2FF03BC03F0A9FE00002DE9FF5F3A
:100210004FF0000AFD484078000200B2FB4989789F
:1002200040EA010BBAF1000F22D10BF10300C1B279
:10023000F64803F054FF00B2F5490880F3490BF18A
:100240000400095CF14A401E105C41EA002000B243
:10025000F0490880EE48B0F90000B1F9001088427A
:1002600004D10AF1010000F0FF0A01E04FF0000A9A
:10027000BAF1010F0AD1E5480078042804D10AF147
:10028000010000F0FF0A01E04FF0000ABAF1020F8E
:100290007ED1DE484079DD49097940EA012000B28B
:1002A000DD490880B1F9001040F2DC52501A07F025
:1002B00006F98046D94ADA4B06F090FE0646D94A3E
:1002C000D94B07F063F904460022D84B06F042FFF1
:1002D000D74A03C2D64903C906F0DAFDD54A03C29C
:1002E00000224FF08043D34903C907F04FF9044679
:1002F000D14AD24B07F04AF9D14AD24BCDE900019D
:1003000007F044F90646D04AD04B07F073FA80460E
:1003100006F00CFE0022CE4BCDE9020107F05CFB9B
:10032000C44A03C200221346C24903C907F02CFA8B
:100330001BD80022C74BBF4903C907F0EBF814D8FC
:10034000BC48D0E90010C44AC2E900101046D0E908
:100350000010C24AC2E90010BF48D0E90010C04AEC
:10036000C2E900100120BF490870A848C079A74918
:10037000897940EA012000B2BB4908800846B0F9FB
:10038000000007F09CF80022B84BCDE9020100E024
:100390005EE007F021FB8046B54AB64B06F01EFE34
:1003A0000446A04AA04B07F0F1F8064600229F4BF6
:1003B00006F0D0FEB04A03C2AF4903C906F068FD9B
:1003C000AE4A03C200224FF080439A4903C907F0A6
:1003D000DDF80446AA4AAB4B07F0D8F80646AA4A0D
:1003E000AA4B07F0D3F88046A94AAA4B07F002FAB5
:1003F000CDE9000106F09AFD0022A74BCDE90201EC
:1004000007F0EAFA9D4A03C2002213469B4903C93A
:1004100007F0BAF917D800228E4B984903C907F0A4
:1004200079F810D8954903C99C4A03C29B4903C96E
:100430009B4A03C29948D0E900109A4AC2E90010C9
:10044000012099490870012098490870984908705E
:10045000BDE8FF9F2DE9FC5F022096490870964990
:10046000087001209549087095490870954896498B
:100470000860072095490870032095490870954940
:1004800008700720944908703C209449086002F0E5
:100490000BF902F0F0FA03F04FF91E225B4900203D
:1004A00003F0E0F98E48007807F020F804460D4686
:1004B0008548006807F07AFB02460B46CDE900014B
:1004C0000020884906F046FE804600224FF0804317
:1004D00007F05CF8064622462B4607F057F882469E
:1004E00006F0C0FF804908608048007806F0FEFFF3
:1004F00006460F46744801687D4807F0E5FB019009
:1005000007F054FB824600224FF0804307F03EF88C
:10051000804632463B4607F039F8044606F0A2FF13
:1005200074490860704800687349B1FBF0F0734982
:100530000880704800687049B1FBF0F0704908808D
:100540000621704802F023FFFFF760FE40F2BB2156
:1005500040F2775001F0C7FE40F2BB2140F27750E5
:1005600001F000FF0020BDE8FC9F2DE9FC4166483A
:100570000078012847D1654800780028FAD16249FF
:10058000087063480078012808D162480078012883
:1005900004D10821604803F087FD09E05C48007839
:1005A00010B15C48007818B908215C4803F07CFD64
:1005B00058480078012827D10020564908703A4849
:1005C0000078012808D10020554908603448D0E956
:1005D0000010344AC2E90010314830490CC803C940
:1005E00007F0FAF921F0004104464E4A4E4B07F05D
:1005F000CBF80AD82A4829490CC803C907F0ECF9F6
:100600004A4A03C298E0BAE153E191E0EA010020CE
:1006100064010020660100208801002066BD18CA20
:10062000F925B140F1D4C853FB2109400094D140D1
:1006300090010020A8010020D0B359F5B9A24C4088
:100640008195438B6C2B5E4091CFAF56D36CD140DC
:1006500000E8554000004340780100204800002099
:1006600058000020990000209801002000407F40A1
:10067000C1A8A44E60E4A040A0010020B001002069
:10068000AAF1D24D624C814060764F1E169279409D
:1006900040943F4A2CEB1C4100B46C408001002088
:1006A00040000020500000209800002001000020A1
:1006B000020000203C0000203D000020000000203F
:1006C000030000206666E63F74000020070000205B
:1006D0000400002005000020060000206C0000201F
:1006E0006800002000807640600000206900002043
:1006F0000000B4436400002000A24A049A000020D5
:100700009C0000209E000020710100207301002049
:100710007501002076010020B2000020C2000020F8
:10072000F0000020FCA9F1D24D62603F18000020CB
:100730000020FE4A10605060FD4AFE4BFB4903C991
:1007400006F024FF0646FC4AFC4B06F003FD044677
:1007500006F058FEFA49086008460068E8B900212A
:10076000F84805F02FFA0021F74805F02BFA02208F
:10077000F64908700020F64908600120F549087024
:100780000020F5490860F548D0E90010F44AC2E9B4
:1007900000100020F34908708BE0E9480068002849
:1007A00040DD0021E74805F00DFA0021E64805F09C
:1007B00009FAE3480068E6490860EB48C07820F091
:1007C00020002030E849C8700846C07820F080003A
:1007D0008030C87008460168009100798DF80400E7
:1007E0000320019A01F0E6FE0120E0490860D749A4
:1007F000087040F2BB22002140F2775003F0D2F99A
:100800000020D44908700121CE4805F0DBF9012110
:10081000D74805F0D7F90020CF4908600120D14919
:10082000087046E0C6480068002842DA0021C54842
:1008300005F0C8F90021C44805F0C4F9C0490868AA
:10084000002801DB014600E04142C14A1160C64870
:10085000C07820F020002030C349C8700846C07816
:1008600020F080008030C87008460168009100794F
:100870008DF804000320019A01F09CFE40F2BB2297
:10088000002140F2775003F08DF90020B74908604D
:10089000AE490870AF490870AF4908600120B149FE
:1008A00008700121A74805F08DF90121B04805F035
:1008B00089F9B0480078012861D10020AD4908705D
:1008C00000214FF0804005F07DF9AB480078012809
:1008D00006D10020A9490860A94903C9A94A03C251
:1008E000A748A9490CC803C907F076F821F00041D0
:1008F0000446A64AA64B06F047FF08D8A048A249DE
:100900000CC803C907F068F8A24A03C203E000213B
:10091000A04A11605160A04AA04B9E4903C906F04D
:1009200035FE0646844A854B06F014FC044606F064
:1009300069FD9B4908600846006808BB0220994988
:1009400008700021984805F03DF900214FF08040E3
:1009500005F038F94FF0804004F004FD0020934981
:100960000860864908600120834908708648D0E9FC
:100970000010834AC2E9001000208D49087097E0FA
:1009800087480068002845DD0021874805F01AF9EE
:1009900000214FF0804005F015F94FF0804004F041
:1009A000E1FC7F480068814908608248C07820F0F7
:1009B000200020307F49C8700846C07820F08000B1
:1009C0008030C87008460168009100798DF80400F5
:1009D0000320019A01F062FD012064490839086092
:1009E0007049087040F2BB22002140F2775003F0BA
:1009F00010F90020604908706049086001206C49C6
:100A000008700121684805F0DDF80121584805F01B
:100A1000D9F84DE062480068002849DA00216248B0
:100A200005F0D0F800214FF0804005F0CBF84FF0F2
:100A3000804004F097FC5A490868002801DB014611
:100A400000E04142594A11605A48C07820F0200025
:100A500020305849C8700846C07820F080008030A7
:100A6000C87008460168009100798DF804000320E1
:100A7000019A01F013FD00203C490839086040F25A
:100A8000BB22002140F2775003F0C3F80020454913
:100A900008703949087039490860012044490870D4
:100AA0000121414805F08EF80121314805F08AF80E
:100AB0000020BDE8FC812DE9FF5F4FF00009002414
:100AC000C0203D49087082204870002088702A4864
:100AD000007800287ED13248006800287ADD284856
:100AE0000CC80020354906F079FA05460E46244820
:100AF0000CC80020314906F071FA07462A463346F1
:100B000006F044FD82462E4A2E4B06F073FE2E4A16
:100B10002E4BCDE9020106F01DFB2D4A03C22C49E4
:100B200003C906F077F80746002254E018000020B9
:100B3000E0EFF7FBFD7ECF406EDBB66DDBB64940E4
:100B40003000002000080040000400403C0000206D
:100B50002C00002098000020F000002080010020E0
:100B6000400000200900002002010020AC012242C8
:100B7000002C01407501002099000020F4000020A5
:100B8000480000205800002078010020FCA9F1D284
:100B90004D62603F10000020ECF57ABD5EAFD3409F
:100BA000380000203D000020000C004034000020F0
:100BB0000A000020070100200802002000E855403C
:100BC00091CFAF56D36CD1406CB7B8216AFFCA4001
:100BD000880000201AE0F74B06F0D8FCF64AF74BE5
:100BE000CDE9000106F0B6FA0546F54AF54B06F0E8
:100BF000F3FE82460022F44B06F0FCFDCDE9020133
:100C000006F000FC00B2F149088051E0F04800789D
:100C1000002844D1EF480068002840DAEE480CC8AC
:100C20000020EE4906F0DAF907468846EA480CC883
:100C30000020EA4906F0D2F905463A46434606F056
:100C4000A5FC8246E64AE74B06F0D4FDE64AE74BB0
:100C5000CDE9020106F07EFAE54A03C2E44903C980
:100C600005F0D8FF82460022D24B06F08FFC0746E3
:100C7000D14AD24B06F06EFA0546D14AD14B06F066
:100C8000ABFE0022D04BCDE9000106F0B3FDCDE96B
:100C9000020106F0B7FB00B2CC49088008E0CC485E
:100CA0000078012804D1D348B0F90000C749088072
:100CB000C6480088000AD0490871C4480078CF4966
:100CC000087008460078CC49487100208871C871C6
:100CD000CB48007800283ED1CA48006800283ADD99
:100CE000C9480CC80020C94906F078F905460E46E7
:100CF000C5480CC80020C54906F070F982462A464E
:100D0000334606F043FC0746C14AC24B06F072FD6B
:100D1000C14AC24BCDE9020106F01CFAC04A03C227
:100D2000BF4903C905F076FF0022A24BCDE90201BD
:100D300006F02CFC0746A04AA04B06F00BFA05462D
:100D4000B84AB94B06F048FE824606F05BFB00B29B
:100D5000B649088089E0AA48007800283ED1A94811
:100D6000006800283ADAA8480CC80020A74906F015
:100D700035F907468846A4480CC80020A34906F068
:100D80002DF93A464346CDE9020106F0FFFB054640
:100D90009F4AA04B06F02EFD82469F4A9F4B06F0CD
:100DA000D9F99F4A03C29E4903C905F033FF824621
:100DB0000022804B06F0EAFB7F4A804BCDE902011E
:100DC00006F0C8F90546974A974B06F005FE074618
:100DD00006F018FB00B29549088046E08848007884
:100DE000012842D19248B0F9000090490880844817
:100DF0000078012839D176480078012835D10B22B6
:100E00008C49002002F03FFD02207D4908707049A6
:100E100008708948C07820F0200020308649C870CA
:100E20000846C07820F08000C8700846016802912A
:100E300000798DF80C000320039A01F0BBFB7F487A
:100E4000C07820F0200020307C49C8700846C07867
:100E500020F08000C87008460168029100798DF882
:100E60000C000320039A01F019FB70480088000A67
:100E7000614908726D480078714908700846007829
:100E80005D4948726F480088000A88726D48007892
:100E90006D490870084600785749C8726B48006869
:100EA00030B96A48001D006810B90920087322E0B3
:100EB0006648006838B96548001D0068012802D1FD
:100EC0004D49087317E061480068012807D15F4861
:100ED000001D006818B90820474908730BE05B48FB
:100EE0000068012807D15948001D0068012802D177
:100EF0000020414908735648006838B954481038F2
:100F0000006818B903203C49487322E05048006843
:100F1000012808D14E4810380068012803D100206C
:100F20003549487315E04A480068012807D1484808
:100F30001038006818B902202F49487309E0444866
:100F4000006830B9424810380068012801D12A49A8
:100F5000487340480078A0B93F48007810B909208C
:100F6000254988733C480078012802D10A2022498B
:100F7000887339480078022802D108201E498873F6
:100F800085E034480078012869D13348007810B9E9
:100F900005201949887330480078012802D10620BD
:100FA000154988732C480078022870D10420124912
:100FB00088736CE00094D140F1D4C853FB21094000
:100FC00066BD18CAF925B140007097402200002084
:100FD00099000020380000204800002000E855401B
:100FE00091CFAF56D36CD1406CB7B8216AFFCA40DD
:100FF000880000208801002008020020280000202E
:1010000098000020300000204000002000B46C4018
:1010100040943F4A2CEB1C41EB0A6C844AA51B41CF
:10102000800000204C37894160E4A040200000206F
:1010300098010020CC0100200201002007010020BF
:1010400029000020100100200800002020812142FA
:10105000300122423C0000203D000020FFE7FE4816
:101060000078022813D1FD48007810B90120FC490E
:101070008873FA480078012802D10220F849887361
:10108000F6480078022802D10020F5498873F54817
:10109000007810B1F448007860B9F448006801287D
:1010A00008D1F24810380068012803D10220EC4929
:1010B000C87333E0E8480078022803D1E748007895
:1010C00002280CD0E9480068012808D1E748103808
:1010D0000068012803D10320E149C8731EE0DE48FF
:1010E0000078022810D1DD48007802280CD1DF48B2
:1010F0000068012808D1DD4810380068012803D1B4
:101100000420D749C87309E0D848006818B1D74807
:101110001038006810B90520D149C8730C20D04997
:10112000C8700F21CE48401C02F0D9FF00B2D04950
:10113000088008460088000ACE49087008460078F2
:10114000C7490874CA480078CB4908700846007837
:10115000C3494874C020C9490870601CC4B24FF02C
:10116000010927E0BE4810F80900C02809D1DB209A
:10117000C2490855601CC4B2DC200855601CC4B2CA
:1011800014E0B74810F80900DB2808D1BB4908551E
:10119000601CC4B2DD200855601CC4B206E0B04833
:1011A00010F80900B5490855601CC4B209F10100E6
:1011B00000F0FF09B9F1120FD4DBC020AF49085588
:1011C000601CC1B2AD4802F06FFFBDE8FF9F2DE982
:1011D000FC5FAB48007801287ED10020A849087048
:1011E000A8480078012863D10821A74802F05CFFD5
:1011F000A648C07820F020002030A449C8700846D6
:10120000C07820F080008030C870084601680091E6
:1012100000798DF804000320019A01F0CBF99C4875
:10122000C07820F0200020309949C8700846C07866
:1012300020F080008030C870084601680091007975
:101240008DF804000320019A01F028F900208D494F
:101250000870864974310860804908708D49C1F86A
:10126000AC017D4908707F4908707F4908708A4841
:101270000068012807D10121884804F0A3FC002060
:101280008749087003E00021844804F09BFC8248F1
:10129000001D0068012807D10121824804F092FC5A
:1012A00000208149087003E000217E4804F08AFC98
:1012B0007E48007801288FD100207C4908700821E1
:1012C000714802F0F1FE68480078012884D1654831
:1012D00000780128EFD100E0FCE1754800680028A3
:1012E0005ADD00216F4804F06DFC01206E49087042
:1012F00070480CC80020704905F070FE8046894691
:101300006C480CC800206C4905F068FE82464246D5
:101310004B4606F03BF90646684A694B06F06AFA06
:101320000446684A684B05F015FF684A03C26749DE
:1013300003C905F06FFC06460022654B06F026F94E
:101340008246644A644B05F005FF8046634A644B5D
:1013500006F042FB04460022624B06F04BFA624A5A
:1013600003C2614903C906F04DF800B25F49088025
:101370000846B0F900005E4908804E4903C95D4A3D
:1013800003C25D4800685D49086001204649087055
:10139000022032490870B6E045480068002859DA52
:1013A0000021404804F00EFC01203F4908704148EC
:1013B0000CC80020404905F011FE06460F463D4886
:1013C0000CC800203C4905F009FE824632463B46E7
:1013D00006F0DCF80446394A394B06F00BFA804631
:1013E000384A394B05F0B6FE384A03C2374903C9BB
:1013F00005F010FC06460022354B06F0C7F8804683
:10140000344A354B05F0A6FE8246344A344B06F08A
:10141000E3FA04460022334B06F0ECF9324A03C2E9
:10142000314903C905F0EEFF00B230490880084693
:10143000B0F900002E4908801E48D0E900102D4A5E
:10144000C2E900102C4800682C49086001201649A8
:10145000087055E057E000003C0000203D000020EF
:10146000080200200000002003000020300122427A
:101470002400002026000020270000202602002053
:101480006F01002070010020BA000020020100203E
:101490000701002000002242208121420008004074
:1014A00098000020000C00409900002074010020EA
:1014B000380000204800002000E8554091CFAF568A
:1014C000D36CD1406CB7B8216AFFCA4088000020B5
:1014D0000094D140F1D4C853FB210940BAF770C938
:1014E000F925B1400070974090000020880100204D
:1014F0002200002078010020F400002034000020A9
:101500000220FE490870FE48006800285ADD0021CC
:10151000FC4804F057FB0120FB490870FB480CC84D
:101520000020FB4905F05AFD06460F46F7480CC857
:101530000020F74905F052FD804632463B4606F052
:1015400025F80446F34AF44B06F054F98246F34A70
:10155000F34B05F0FFFDF34A03C2F24903C905F05E
:1015600059FB80460022F04B06F010F80646EF4A81
:10157000EF4B05F0EFFD0446EE4AEF4B06F02CFA78
:10158000EE4A03C20022EE4BEC4903C905F0FEFF10
:10159000044605F037FF00B2EA4908800846B0F972
:1015A0000000E9490880D94903C9E84A03C2E8486C
:1015B0000068E84908600120D34908700220E64924
:1015C00008705FE0CE48006800285BDA0021CD4853
:1015D00004F0F8FA0120CC490870CC480CC800206F
:1015E000CB4905F0FBFC80468946C8480CC8002062
:1015F000C74905F0F3FC064642464B4605F0C6FFD8
:101600000446C44AC44B06F0F5F88246C34AC44BAC
:1016100005F0A0FDC34A03C2C24903C905F0FAFAA6
:1016200006460022C04B05F0B1FF8046BF4AC04BC2
:1016300005F090FD0446BF4ABF4B06F0CDF9BF4A06
:1016400003C20022BE4BBD4903C905F09FFF0446FB
:1016500005F0D8FE00B2BB4908800846B0F900008A
:10166000B9490880A948D0E90010B84AC2E9001079
:10167000B7480068B74908600120A34908700220F4
:10168000B54908700420B54908700020487006204C
:1016900088700020C870B2480088000A0871B048FD
:1016A00000784871A8480088000A8871A648007828
:1016B000C871002008720921A84802F010FD00B28C
:1016C000A849088008460088000AA4494872A5482D
:1016D000007888720020BDE8FC9F1CB5002402F051
:1016E000D3FB4FF4A06003F0CFFD4FF4E13002F0E4
:1016F00043FC4FF4165001F063FD01F001FD00F0D2
:1017000015FD00F08AFD012241F61F41092002F07B
:10171000DFF9FEF79FFECBE19348007801280BD15B
:1017200000209149087002F000FD1E218F4804F04E
:10173000AEFE00208E490870FFF749FD8D48007805
:10174000012806D100208B4908700E218A4802F03A
:10175000ABFC8A480078012804D100208749087032
:10176000FFF7A9F986480078012806D0022807D09B
:10177000032806D004280CD107E0FEF7F6FE09E0A6
:1017800008E0002002F0BDF804E0002002F020F99B
:1017900000E000BF00BF7B480078012804D1002092
:1017A0007849087001F00FFE774800680228B2D32C
:1017B0000020754908607548006800287BD14F48B3
:1017C0000078002877D10021714804F0FBF902204D
:1017D0004A49087001206F49087000206E4908606E
:1017E00000216E4A116051606D4A116051606D4870
:1017F0000078012816D16C48C07820F020002030F5
:101800006949C8700846C07820F08000C870084652
:101810000168009100798DF804000320019A00F01E
:101820003DFE48E05F480078002844D101205F4930
:1018300008603249087000205D4908600021574A5D
:101840001160516053490870012056490870594988
:101850005948534AC2E90010012058490870002035
:10186000574A10605060574A574B4D4903C905F01D
:101870008DFE0546554A564B05F06CFC074605F0B3
:10188000C1FD4549086008460068524908600020CB
:1018900051490880002405E05048005D2F49085553
:1018A000601CC4B20C2CF7DB0121394804F08AF922
:1018B00001204B4908703548001F006800281BD1E3
:1018C000254800780028FAD100210E4804F07AF962
:1018D00001200D49087000200949086002201E49B6
:1018E00008700021094A11605160184A1160516066
:1018F00000201749086075E0DAE000003D00002094
:101900003000002000080040980000204000002027
:1019100000B46C4040943F4A2CEB1C41EB0A6C84B1
:101920004AA51B418000002000806640F1D4C853C6
:10193000FB210940E561A1D6349F354078000020A5
:101940000000594098010020200000208001002064
:10195000F00000202C0000203C000020CC010020E2
:1019600022000020640100206C0100208C02002075
:101970006A0100206D010020A40000206E010020FB
:10198000710100200E010020EC0000202481214282
:10199000000C004099000020380000204800002082
:1019A000780100200300002007010020A40122424A
:1019B000F4000020D55C6E30D4A92F400200002036
:1019C00058000020ECF57ABD5EAFD3406EDBB66DFB
:1019D000DBB649403400002088010020CA00002006
:1019E0000A00002033480078012816D13248C07818
:1019F00020F0200020303049C8700846C07820F020
:101A00008000C87008460168009100798DF80400D4
:101A10000320019A00F0CEFD4AE026480078002815
:101A200046D12649087001202249087024490860DF
:101A3000244908700020244908600021234A1160CD
:101A4000516001202249087022492348234AC2E9F3
:101A5000001001201E490870002021490880002143
:101A6000204A11605160204A204B1C4903C905F0EF
:101A70008DFD05461E4A1F4B05F06CFB074605F021
:101A8000C1FC1D490860002405E01C48005D1C499C
:101A90000855601CC4B20C2CF7DB174800681949C4
:101AA00008600120184908700121184804F08AF8DC
:101AB00032E6000000000020020100209800002013
:101AC000AC0122423C000020F00000204000002039
:101AD000010000209EEFA7C64B1736408001002072
:101AE0009801002050000020E0EFF7FBFD7ECF4082
:101AF0006EDBB66DDBB6494030000020CA00002026
:101B0000CC0100202C00002009000020000800402B
:101B1000704700BFFEE700BFFEE700BFFEE700BF63
:101B2000FEE7704770477047704700000CB5002013
:101B3000019000906C48006840F480306A49086069
:101B400000BF6948006800F4003000900198401C14
:101B50000190009818B90198B0F5A06FF1D16248D2
:101B6000006800F4003010B10120009001E0002076
:101B700000900098012843D15C48006840F01000B4
:101B80005A4908600846006820F0030008600846CB
:101B9000006840F0020008605348406852494860BD
:101BA0000846406848600846406840F480604860E5
:101BB0000846406820F47C1048600846406840F4BD
:101BC000E81048600846006840F08070086000BF78
:101BD0004548006800F000700028F9D0424840688D
:101BE00020F00300404948600846406840F0020089
:101BF000486000BF3C48406800F00C000828F9D15C
:101C00000CBD10B5FFF792FF10BD10B53648006847
:101C100040F00100344908600846406834490840F3
:101C20003149486008460068324908402E4908603A
:101C30000846006820F4802008600846406820F4C8
:101C4000FE0048604FF41F008860FFF7DAFF4FF096
:101C500000602949086010BD10B500210020002255
:101C6000214B5B6803F00C0121B1042906D008293F
:101C700028D107E0214B224C236027E01F4B204C4A
:101C8000236023E0184B5B6803F47010164B5B680D
:101C900003F48032022303EB904022B9194B4343F3
:101CA000174C23600DE0104B5B6803F4003323B145
:101CB000144B4343124C236003E0104B4343104C3E
:101CC000236003E00D4B0E4C236000BF00BF064BAA
:101CD0005B68C3F303130C4CE15C094B1B68CB40FE
:101CE000074C236010BD000000100240002002409D
:101CF0000000FFF8FFFFF6FE08ED00E000127A009A
:101D0000D800002000093D00DC0000207FB505461A
:101D10000C460121084603F05CF84FF0804003F0C8
:101D200021FBADF80850ADF804400020ADF80A00E2
:101D3000ADF8060001A94FF0804003F0E7FB012158
:101D4000880704F005FA01221146900703F055FFB9
:101D50001C208DF8000002208DF801008DF8020093
:101D600001208DF80300684603F093FA01218807EB
:101D700003F028FF7FBD2DE9F05F0121880704F003
:101D8000EAF900287DD00121880704F0F5F9BC4864
:101D90000068401CBA490860BA480068022870D13F
:101DA000B9480078E0B9B9480068002818DDB8489B
:101DB000008805F09BFB804642460B460020B54953
:101DC00005F0C8F90646B44AB44B05F0DFFB0446FB
:101DD000B3480CC8204605F001F9B14A03C21EE021
:101DE000A9480078D8B9A9480068002817DAA84897
:101DF000008805F07BFB064632460B460020A549CD
:101E000005F0A8F90446A44AA44B05F0BFFB8046A0
:101E1000A3480CC8404605F0EDFCA14A03C24FF0B0
:101E20007E51A048006805F0EDFE9E490860084616
:101E3000006805F0BBFE804600229B4B05F08AF946
:101E400006460022994B05F0C9F804460022984B3B
:101E500005F09CFB824605F005FB8D4908800120BA
:101E6000944908608A480088441E04EBD4714A10E3
:101E700087490988481E002101F0CBFE8048006890
:101E800000E03EE005F01BFB04460022864B05F017
:101E90007BFC36D800207A49086000214FF0804052
:101EA00003F090FE0021844803F08CFE002081495D
:101EB0000860754908700220804908707848D0E9A8
:101EC00000107F4AC2E9001000207E4908706D486A
:101ED000006802280ED100206A49086001207A4972
:101EE00008707A49087040F2BB22002140F2775016
:101EF00001F08FFE00214FF0804003F063FEBDE84B
:101F0000F09F00BFFBE710B57148008820F001008A
:101F10006F4908806F4800680F2804D26D48006838
:101F2000401C6C4908606C48007860B96B480068D8
:101F3000002808DD6A4A6B4B6B4903C905F04EF86F
:101F4000694A03C20EE06448007858B963480068E3
:101F5000002807DA624A634B634903C905F03CFD78
:101F6000614A03C24848007860B9484800680028C0
:101F700008DD5E4A5E4B4A4903C905F02FF8484A1E
:101F800003C20EE04048007858B940480068002875
:101F900007DA564A564B424903C905F01DFD404A2F
:101FA00003C254480078012835D1534800780128ED
:101FB00031D15248006852490968884226D34D48B9
:101FC0000078012822D14F48007801281ED1002135
:101FD0004D4803F0F7FD4148006828B94B48D0E967
:101FE0000010414AC2E9001001203B49087000205E
:101FF000424908600220464908703B48D0E9001079
:10200000444AC2E9001000203B4908703B48006880
:10201000401C3A4908604048007801282FD12948DF
:10202000007801282BD13D4800683D490968884265
:1020300020D33C48007801281CD100211E4803F021
:10204000C1FD1248006818B9374903C9144A03C2D0
:102050000020324908600220184908701048D0E971
:102060000010174AC2E9001001200749087000203B
:102070001449087029480068401C2849086010BDB0
:10208000500100201C010020990000203800002091
:102090004601002040776B41A60A462575020A3F9B
:1020A0004800002038010020000024400000F03FDC
:1020B00000E0954024010020000C00403D0000207D
:1020C000580000200A000020750100207101002046
:1020D000102C0140EC00002098000020300000206F
:1020E0006AC8B9CF2E206A3F40000020216D61D917
:1020F0008BE6643F0000002009000020F000002073
:102100002C00002001000020000800408001002079
:102110003C0000205000002003000020F4000020BC
:1021200034000020020000207801002000B587B0B4
:1021300001211D2002F040FE0121FE4802F051FC69
:102140000121C80302F045FE4FF40060ADF818000D
:1021500010208DF81B0006A9F74802F071FB4FF420
:10216000A050ADF8180048208DF81B0006A9F248D1
:1021700002F066FB8020ADF8180010208DF81B00DF
:1021800006A9EE4802F05CFB8021EC4802F007FC57
:102190003820ADF8180003208DF81A0018208DF8AB
:1021A0001B0006A9E54802F04BFB4FF40040ADF8D8
:1021B000180010208DF81B0003208DF81A0006A9C6
:1021C000DF4802F03DFB4FF40041DD4802F0E5FB43
:1021D0000020ADF804004FF48270ADF80600002036
:1021E000ADF80800ADF80A00ADF80C004FF400702F
:1021F000ADF80E002820ADF810000020ADF8120058
:102200000720ADF8140001A9CE4803F0DFFF01213B
:10221000CC4804F080F807B000BD00B587B00121BC
:10222000082002F0C9FD0121880302F0D2FD4FF41D
:102230006040ADF8180018208DF81B0003208DF8C1
:102240001A0006A9BD4802F0FBFA4FF48050ADF821
:10225000180010208DF81B0006A9B84802F0F0FA0B
:102260004FF48051B54802F098FB4FF40070ADF880
:10227000180010208DF81B0003208DF81A0006A905
:10228000AD4802F0DDFA4FF48070ADF81800482038
:102290008DF81B0006A9A84802F0D2FA0020ADF87C
:1022A00004004FF48270ADF806000020ADF808007D
:1022B000ADF80A00ADF80C004FF40070ADF80E0058
:1022C0002820ADF810000020ADF812000720ADF86E
:1022D000140001A99C4803F079FF01219A4804F0F9
:1022E0001AF807B000BD30B589B005460C4601218B
:1022F000042002F06EFD0121082002F05DFD402067
:10230000ADF8200018208DF8230003208DF822005E
:1023100008A98A4802F094FAADF818500020ADF8E8
:102320001400ADF81A00ADF8160005A9874803F0AF
:10233000EDF86020ADF804000120ADF80600ADF81E
:102340000A400020ADF80C0001A9804803F01BF9F9
:1023500008217E4803F066FD01217C4803F032FD30
:1023600009B030BD30B589B005460C4601210520C5
:1023700002F022FD0121082002F02BFD0120ADF822
:10238000200018208DF8230003208DF8220008A9D2
:102390006B4802F055FAADF818500020ADF8140063
:1023A000ADF81A00ADF8160005A9694803F0AEF8BB
:1023B0006020ADF804000120ADF80600ADF80A4039
:1023C0000020ADF80C0001A9614803F0DCF80821F9
:1023D0005F4803F027FD01215D4803F0F3FC09B0DD
:1023E00030BD10B586B00446ADF8104001A956487E
:1023F00003F0ECFE0121544803F08DFF06B010BD40
:1024000070B50546002405E0601CC4B2C82C01DD8F
:10241000002070BD02214C4804F001F80028F3D0E0
:102420002946494803F0A8FF002405E0601CC4B217
:10243000C82C01DD0020ECE70121434803F0EFFF49
:102440000028F3D0404803F099FFC0B2E1E770B52F
:102450000546002405E0601CC4B2C82C01DD002044
:1024600070BD0221374803F0DAFF0028F3D0294677
:10247000344803F081FF002405E0601CC4B2C82C7E
:1024800001DD0020ECE701212E4803F0C8FF002801
:10249000F3D02C4803F072FFC0B2E1E7F7B5044671
:1024A0004CB99DF80400C0F3C300C0009DF80410AF
:1024B000C90940EAC115012C05D19DF80500410963
:1024C00061F35F100546022C16D19DF80600C0F39B
:1024D000800161F39F009DF80610C1F3C00140EA3E
:1024E000C1009DF80610C1F3801140EA81109DF8EB
:1024F0000610C90940EAC115032C15D19DF8070043
:10250000C0F3001000019DF80710C1F3401140EA2C
:1025100041109DF80710C1F3801140EA81109DF829
:102520000710C90940EAC115092C15D19DF808000A
:1025300010E000000002300000100140000C0140DB
:1025400000080140003C0040003800400008004006
:10255000000C004000F007050020F749086044F037
:102560008000FFF74DFF07462846FFF749FF064664
:102570000A2001F0A2FC0120F049C1F8B0010A20B4
:1025800001F09BFC0020EC4908602046FFF738FF73
:1025900006460020FFF734FF06460120E749C1F850
:1025A000B0010A2001F089FCAE4201D12846FEBDEF
:1025B0000020FCE7F7B504464CB99DF80400C0F3D1
:1025C000C300C0009DF80410C90940EAC115012CE0
:1025D00005D19DF80500410961F35F100546022C05
:1025E00016D19DF80600C0F3800161F39F009DF8AD
:1025F0000610C1F3C00140EAC1009DF80610C1F306
:10260000801140EA81109DF80610C90940EAC11501
:10261000032C15D19DF80700C0F3001000019DF8B0
:102620000710C1F3401140EA41109DF80710C1F3B3
:10263000801140EA81109DF80710C90940EAC115D0
:10264000092C03D19DF8080000F007050020BC49C3
:1026500008600A2001F031FC44F08000FFF7F7FE2B
:1026600007462846FFF7F3FE06460120B549C1F8A4
:10267000BC010A2001F021FC0020B149086020467D
:10268000FFF7E5FE06460020FFF7E1FE06460120C3
:10269000AC49C1F8BC01642001F00FFCAE4201D18D
:1026A0002846FEBD0020FCE71CB50220012804D00E
:1026B00002280AD0032818D10FE0A348407820F060
:1026C0001F000D30A049487017E09F48407820F067
:1026D0001F0010309C4948700FE09B48407820F064
:1026E0001F0016309849487007E09748407820F05E
:1026F0001F0010309449487000BF00BF92484078D6
:1027000020F0E000904948700846C07820F0200092
:102710002030C8700846C07820F08000C870084695
:10272000807820F0030088700846807820F004004C
:10273000001D88700846807820F0080008308870F6
:102740000846807820F0400088700846807820F0A5
:10275000800088707D48007830B101282ED0022892
:1027600056D0032874D17EE00220012804D002282C
:102770000AD0032818D10FE07348407820F01F00DA
:10278000401C7149487017E06F48407820F01F00E6
:10279000C01C6D4948700FE06B48407820F01F0066
:1027A00008306949487007E06748407820F01F000A
:1027B000C01C6549487000BF00BF86E002200128A8
:1027C00004D002280AD0032818D10FE05E484078D0
:1027D00020F01F00801D5C49487017E05A4840787F
:1027E00020F01F000A30584948700FE056484078E2
:1027F00020F01F0010305449487007E052484078DC
:1028000020F01F000A305049487000BF00BF5CE054
:102810000220012804D002280AD0032819D10FE091
:102820004948407820F01F000A304749487018E0B6
:102830004548407820F01F000E304349487010E0B2
:102840004148407820F01F0013303F49487008E0AD
:1028500033E03D48407820F01F000E303A49487080
:1028600000BF00BF31E00220012804D002280AD0B6
:10287000032818D10FE03448407820F01F000D30B5
:102880003149487017E03048407820F01F00103080
:102890002D4948700FE02C48407820F01F0016307A
:1028A0002949487007E02848407820F01F00103080
:1028B0002549487000BF00BF07E02348407820F05A
:1028C0001F0010302049487000BF00BF204800782A
:1028D000082870D2DFE800F0040F1F405060707BC2
:1028E0001948007920F00700C01C17490871012021
:1028F0001849087081E01448007920F00700124957
:1029000008710846407820F0E000803048700220CE
:102910001049087071E00C48007920F007000A495E
:1029200008710846407820F0E000603048700420CC
:102930000849087061E00000B08121420080214216
:10294000BC012142000021420201002004000020BD
:102950000600002068000020FE48007920F00700F3
:10296000FC4908710846407820F0E000403048708B
:102970000820F949087040E0F648007920F0070087
:10298000F44908710846407820F0E0002030487093
:102990001020F149087030E0EE48007920F007007F
:1029A000EC4908710846407820F0E000487020208B
:1029B000E949087021E015E0E648007920F00700B9
:1029C000801CE44908714020E349087015E0E148A3
:1029D000007920F00700401CDE4908718020DE49A4
:1029E00008700AE0DB48007920F00700401CD94954
:1029F00008718020D849087000BF00BFD548016821
:102A0000009100798DF804000020019AFFF7D2FDB3
:102A1000D2490870CF480168009100798DF8040010
:102A20000120019AFFF7C6FDCD490870C948016829
:102A3000009100798DF804000220019AFFF7BAFD99
:102A4000C8490870C3480168009100798DF80400F6
:102A50000320019AFFF7AEFDC3490870BD48016825
:102A6000009100798DF804000920019AFFF7A2FD7A
:102A7000BE4908701CBD2DE9FC5F0220012804D06E
:102A800002280AD0032818D10FE0B948407820F076
:102A90001F000D30B649487017E0B548407820F067
:102AA0001F001030B24948700FE0B148407820F064
:102AB0001F001630AE49487007E0AD48407820F05E
:102AC0001F001030AA49487000BF00BFA848C07856
:102AD00020F020002030A649C8700846C07820F0B9
:102AE0008000C8700846807820F00300887008468F
:102AF000807820F00400001D88700846807820F05F
:102B00000800083088700846807820F040008870FF
:102B10000846807820F0800088709648007830B1B0
:102B200001282ED0022856D0032874D17EE002203E
:102B3000012804D002280AD0032818D10FE08C48BD
:102B4000407820F01F00401C8949487017E08848F1
:102B5000407820F01F00C01C854948700FE0844871
:102B6000407820F01F0008308149487007E0804815
:102B7000407820F01F00C01C7D49487000BF00BF96
:102B800086E00220012804D002280AD0032818D1A8
:102B90000FE07748407820F01F00801D744948708E
:102BA00017E07348407820F01F000A3070494870E1
:102BB0000FE06F48407820F01F0010306C494870DB
:102BC00007E06B48407820F01F000A3068494870E1
:102BD00000BF00BF5CE00220012804D002280AD018
:102BE000032819D10FE06248407820F01F000A3016
:102BF0005F49487018E05E48407820F01F000E30B2
:102C00005B49487010E05A48407820F01F001330AC
:102C10005749487008E033E05548407820F01F00DD
:102C20000E305349487000BF00BF31E00220012838
:102C300004D002280AD0032818D10FE04C4840786D
:102C400020F01F000D304A49487017E0484840788E
:102C500020F01F001030464948700FE0444840788B
:102C600020F01F0016304249487007E04048407885
:102C700020F01F0010303E49487000BF00BF07E041
:102C80003B48407820F01F0010303949487000BFA1
:102C900000BF3948007808287CD2DFE800F0043013
:102CA00084B5E6FDFCFB3248007920F00700C01C2B
:102CB0002F4908710120314908703148006804F03B
:102CC00015FC04460D462F48006804F06FFF80464F
:102CD00042460B4600202C4904F03CFA00222B4BC4
:102CE000CDE9000104F052FC064622462B4604F0D2
:102CF0004DFC824604F0B6FB254908609EE11C4865
:102D0000007920F007001A4908710846407820F041
:102D1000E0008030487002201849087018480068A8
:102D200004F0E4FB06460F461648006804F03EFF38
:102D300002460B46CDE900010020134904F00AFACF
:102D4000824600224FF0804304F020FC8046324649
:102D50003B4620E00201002068000020F80000202F
:102D6000F9000020FA000020FB000020FC000020F9
:102D70000701002005000020070000206900002056
:102D80007000002074000020000018400000F03F98
:102D90006400002026E104F0F9FB044604F062FB25
:102DA000C64908604AE1C648007920F00700C449D6
:102DB00008710846407820F0E00060304870042038
:102DC000C0490870C048006804F090FB04460D46F6
:102DD000BE48006804F0EAFE804642460B460020EA
:102DE000BB4904F0B7F982460022BA4B04F0CEFB8F
:102DF000064622462B4604F0C9FBCDE9000104F04B
:102E000031FBAE49086019E1AD48007920F00700B8
:102E1000AB4908710846407820F0E0004030487027
:102E20000820A8490870A848006804F05FFB8246A3
:102E30008B46A648006804F0B9FE804642460B4621
:102E40000020A34904F086F906460022A24B04F0B4
:102E50009DFB044652465B4604F098FBCDE9000119
:102E600004F000FB95490860E8E09548007920F0FF
:102E70000700934908710846407820F0E0002030B0
:102E8000487010208F4908708F48006804F02EFBAE
:102E9000044602E07AE04DE01CE00D468B480068F5
:102EA00004F084FE804642460B460020884904F028
:102EB00051F906460022894B04F068FB22462B4656
:102EC000CDE9000104F062FB824604F0CBFA7B49B5
:102ED0000860B3E07A48007920F00700784908716B
:102EE0000846407820F0E0004870202075490870BE
:102EF0007548006804F0FAFA04460D467348006805
:102F000004F054FE064632460B460020704904F099
:102F100021F982460022724B04F038FB804622469B
:102F20002B4604F033FBCDE9000104F09BFA634922
:102F3000086083E06248007920F00700801C604947
:102F4000087140205F4908705F48006804F0CEFABD
:102F500004460D465D48006804F028FE824652464D
:102F60000B4600205A4904F0F5F8804600225D4BDC
:102F700004F00CFB064622462B4604F007FBCDE985
:102F8000000104F06FFA4D49086057E04C480079A1
:102F900020F00700401C4A49087180204949087008
:102FA0004948006804F0A2FA04460D464748006804
:102FB00004F0FCFD804642460B460020444904F0E4
:102FC000C9F882460022484B04F0E0FA0646224641
:102FD0002B4604F0DBFACDE9000104F043FA37494F
:102FE00008602BE03648007920F00700401C344987
:102FF00008718020334908703348006804F076FA7D
:1030000004460D463148006804F0D0FD8246524621
:103010000B4600202E4904F09DF806460022324B54
:1030200004F0B4FA804622462B4604F0AFFACDE90C
:10303000000104F017FA2149086000BF00BF2048D2
:103040000168009100798DF804000020019AFFF7D3
:1030500025FA264908701A480168009100798DF810
:1030600004000120019AFFF719FA21490870144859
:103070000168009100798DF804000220019AFFF7A1
:103080000DFA1C4908700E480168009100798DF80E
:1030900004000320019AFFF701FA17490870084855
:1030A0000168009100798DF804000920019AFFF76A
:1030B000F5F912490870BDE8FC9F0000640000208B
:1030C000070100206900002070000020740000202B
:1030D0000000184000001040000020400000304078
:1030E000000040400000504000006040FD00002013
:1030F000FE000020FF000020000100200101002050
:1031000008B501213C2001F057FE41F20F10ADF847
:10311000000048208DF803006946244801F090FB28
:103120000420ADF8000010208DF8030003208DF876
:10313000020069461E4801F083FB4FF44070ADF871
:10314000000048208DF8030069461A4801F078FB1A
:103150004FF46040ADF8000028208DF80300694668
:10316000124801F06DFB2020ADF8000010208DF812
:10317000030003208DF8020069460C4801F060FB53
:1031800000200D4908600120ADF8000010208DF8E6
:10319000030003208DF802006946064801F050FB49
:1031A00000200649C1F8800108BD00000010014060
:1031B00000140140000C0140940122420080214291
:1031C00010B586B004460121052001F0F5FD01216E
:1031D000480401F0FEFD0420ADF8140003208DF832
:1031E000160018208DF8170005A9AD4801F028FB3E
:1031F0000820ADF8140048208DF8170005A9A8484C
:1032000001F01EFB26208DF8000001208DF8010042
:1032100000208DF8020001208DF80300684602F0BE
:1032200038F801940020ADF80800ADF80A00ADF8B8
:103230000C00ADF810000C20ADF80E0001A9994863
:1032400001F061FE012240F22551964801F0F3FEA3
:103250000121944801F0E3FE06B010BD10B540F224
:103260002551904801F0CCFF00287DD040F2255137
:103270008C4801F0BCFF8B4801F042FF8A498B4A21
:103280001278885408460078682809D18748007861
:10329000401C86490870844840788549087002E0DF
:1032A0000020824908708148017881480078401CDC
:1032B00081426BDB7E480078002867D000207B4984
:1032C00008707B480078052812D177484078764905
:1032D000897808447449C9780844734909790844CD
:1032E000C0B271494979884202D101207149087000
:1032F0006F480078072818D16B4840786A49897868
:1033000008446949C9780844674909790844664905
:1033100049790844644989790844C0B26249C97945
:10332000884202D1012063490870614800780D2865
:103330002CD15D4840785C49897808445A49C9785D
:103340000844594909790844574949790844564974
:10335000897908445449C97908445349097A084489
:103360005149497A084400E010E04F49897A0844FD
:103370004D49C97A08444C49097B0844C0B24A49BE
:10338000497B884202D101204A49087010BD70B5BE
:1033900005460E4600240CE000BF8021414801F0A4
:1033A00019FF0028F9D0295D3E4801F0A5FE601CF8
:1033B000C4B2B442F0DB00BF40213A4801F00AFF3A
:1033C0000028F9D070BD3848007900F0F00080BBCB
:1033D0003548007900F00F0042F21071484332493D
:1033E0000979090940F63542514300EB41102E4955
:1033F000497901F00F0101EBC10202EB011100EB71
:10340000810029494979090901EB4102C2EBC11147
:1034100000EBC1002449897901F00F0108442249D9
:103420008979090901EB810100EB410000B22249D1
:1034300008801D4800790121B1EB101F2DD11A48D9
:10344000007900F00F0042F21071484316494979A3
:1034500001F00F0101EBC10202EB011100EB810051
:1034600011494979090901EB4102C2EBC11100EB95
:10347000C1000D49897901F00F0108440A49897991
:10348000090901EB810100EB410000B20A49088003
:1034900008460088404200B20880002070470000C3
:1034A0000008014000440040780200200C01002088
:1034B0000D0100200E0100201001002008B501219F
:1034C000082001F079FC4FF44060ADF800001020B6
:1034D0008DF8030002208DF802006946F74801F0DC
:1034E000AFF90120F6490860F649C1F8AC0108BD02
:1034F00010B5F248001D006820F47040EF49091D26
:1035000008600846006840F4405008600120EC491B
:10351000091D0860EB49C1F8A8010A2000F0CDFCA4
:103520000020E749091D08600A2000F0C6FC0020C1
:10353000E449C1F8A80110BD10B5E048001D0068BD
:1035400020F47040DD49091D08600846006840F419
:10355000405008600020DA490860DA49C1F8AC013F
:103560000A2000F0AAFC0120D54908600A2000F0DA
:10357000A4FC0120D349C1F8AC0110BD10B5002452
:10358000CE48001D006820F47040CC49091D086039
:103590000846006840F4004008600120C849091D41
:1035A00008600A2000F089FC0120C649C1F8A80182
:1035B0000A2000F082FC07E0601CC4B2FA2C03DD94
:1035C000FFF7BAFF012010BDBD487C380068002815
:1035D000F2D1BB49086000BFF5E710B50020B8493B
:1035E0000860B648001D006820F47040B349091D0A
:1035F00008600846006840F4405008600020B14967
:10360000C1F8AC010A2000F058FC0120AC49086068
:103610000A2000F052FC0020AA49C1F8A80110BD00
:1036200010B50020A6490860A448001D006820F4D9
:103630007040A249091D08600846006840F44050E7
:10364000086001209F49C1F8AC010A2000F035FC58
:1036500001209B4908600A2000F02FFC00209949B6
:10366000C1F8A80110BD70B504469448001D00685B
:1036700020F470409149091D08600846006840F434
:103680004050086000208E49086000251EE0E009D7
:1036900020B101208A49091D086003E00020884903
:1036A000091D08606006040E0A2000F006FC0120D7
:1036B000834908600A2000F000FC00208149C1F81D
:1036C000A8010A2000F0F9FB681CC5B2082DDEDB5A
:1036D00070BD70B5054600247848001D006820F4D0
:1036E00070407649091D08600846006840F40040B3
:1036F0000860002616E00020714908600A2000F0EA
:10370000DCFB01206F49C1F8A8016006040E6C487B
:103710007C38006808B1601CC4B20A2000F0CDFB00
:10372000701CC6B2082EE6DB15B9FFF779FF01E081
:10373000FFF753FF204670BD10B5FFF7BFFE10BD69
:1037400070B504460026FFF7D3FEA020FFF78BFFDD
:10375000FFF714FF2012FFF786FFFFF70FFF254644
:10376000E11704EB11610912A4EB0121C8B2FFF7C4
:103770007AFFFFF703FFFFF7BBFEA120FFF773FF00
:10378000FFF7FCFE0020FFF7A4FF0646FFF7D4FE7C
:10379000304670BD70B504460E46FFF7A9FEA02066
:1037A000FFF761FFFFF7EAFE2012FFF75CFFFFF76C
:1037B000E5FE2546E11704EB11610912A4EB012196
:1037C000C8B2FFF750FFFFF7D9FE3046FFF74BFFB7
:1037D000FFF7D4FEFFF7B0FE072000F092FB70BDAC
:1037E0002DE9F04105460E461746002409E0E200A7
:1037F00026FA02F2D1B22A1990B2FFF7CBFF601C71
:10380000C4B2BC42F3DBBDE8F0812DE9F0410746CC
:103810000C460026002509E036023919491B491ECD
:1038200088B2FFF78DFF0644681CC5B2A542F3DBE2
:103830003046BDE8F08110B5FF20FFF781FF044658
:10384000552C01D1002010BD5521FF20FFF7A2FF0C
:10385000FF20FFF775FF0446552C01D10020F2E749
:103860000120F0E770B506460C46154608E03046E4
:10387000721C96B2FFF764FF04F8010B681E85B254
:10388000002DF4D170BD70B505460C46164606E015
:1038900021782846FFF77EFF681C85B2641C301E25
:1038A000A6F101018EB2F3D170BDF0B504460E460B
:1038B0001D4600239DB100210DE00000000C0140D9
:1038C000A881214200802142C80026FA00F004F8B5
:1038D000010B481CC1B29142F6DB0020F0BD00266E
:1038E000501E0444002105E01B0214F801793B44FA
:1038F000481CC1B29142F7DB1846EFE701460120B0
:1039000070472DE9FC5F4FF080400190019804F072
:103910004DF9804600225F4B03F01CFC0646002256
:103920005D4B03F033FE044603F026FB00904FF09E
:103930007E505A4908600846006804F037F980460E
:103940000022544B03F006FC06460022544B03F0C1
:1039500045FB04460022534B03F018FE824603F059
:1039600081FD514908800021504802F02BF90020C8
:103970004F4908604C480088441E04EBD4714A103B
:1039800049490988481E002100F00CF9009804F00C
:103990000DF9804600223F4B03F0F8FD0646002259
:1039A0003F4B04F019F8044603F05CFD1FFA80FA5F
:1039B000012241F61F41504600F0C0F801213D4868
:1039C00002F000F900203C4908700120BDE8FC9F8E
:1039D0002DE9FC5F4FF080400190019804F0E6F87B
:1039E000804600222B4B03F0B5FB064600222A4BF3
:1039F00003F0CCFD044603F0BFFA00904FF07E5078
:103A00002E4908600846006804F0D0F8804600227D
:103A1000204B03F09FFB06460022214B03F0DEFA09
:103A2000044600221F4B03F0B1FD824603F01AFD4D
:103A30002349088000211D4802F0C4F800202149D4
:103A400008601F480088441E04EBD4714A101C49CA
:103A50000988481E002100F0DCF81B49009804F09A
:103A600015FA06464FF07E5104F0DCFA054604F0E4
:103A7000EDF984B241F61F412046FEF747F90121D6
:103A8000124802F09FF800200B4908700120BDE8A1
:103A9000FC9F00000000244000408F4034010020C3
:103AA0000000F03F00E0954044010020002C014060
:103AB0004C01002000080040710100203801002066
:103AC000460100205001002000002041000C004071
:103AD0007FB506460C4615460121C80201F06CF977
:103AE000D14801F03FFCADF80860ADF8044000207B
:103AF000ADF80A00ADF806008DF80C0001A9CA481F
:103B000001F004FD0121C84802F036FB01221146F4
:103B1000C54802F072F819208DF8000002208DF8D7
:103B2000010001208DF802008DF80300684601F0C5
:103B3000B0FB2946BC4802F045F87FBD7FB506467C
:103B40000C4615460121022001F043F9B74801F067
:103B500009FCADF80860ADF804400020ADF80A009B
:103B6000ADF8060001A9B14801F0D0FC0121AF4831
:103B700002F002FB01221146AC4802F03EF81D2083
:103B80008DF8000002208DF801008DF80200012060
:103B90008DF80300684601F07CFB2946A34802F03B
:103BA00011F87FBD70B588B004460E461546012158
:103BB000042001F00EF90020ADF81A00ADF816004F
:103BC000ADF81460A0B2ADF8180005A9984801F04E
:103BD0009DFC4FF48070ADF810006020ADF804003B
:103BE0000020ADF80C00ADF808000120ADF806008B
:103BF000A8B2ADF80A0001A98D4801F0C4FC082163
:103C00008B4802F00FF90121894802F0DBF808B077
:103C100070BD70B588B004460E46154601210520DA
:103C200001F0CAF80121082001F0D3F80120ADF815
:103C3000000018208DF8030003208DF8020069466B
:103C40007C4800F0FDFD0020ADF81A00ADF816002C
:103C5000ADF81460A0B2ADF8180005A9764801F0DF
:103C600055FC4FF48070ADF810006020ADF80400F2
:103C70000020ADF80C00ADF808000120ADF80600FA
:103C8000A8B2ADF80A0001A96B4801F07CFC08213C
:103C9000694802F0C7F80121674802F093F808B0BC
:103CA00070BD2DE9F05F61481030008820F0010000
:103CB0005E491031088061480068401C5F49086017
:103CC0005F48006802287DD15E480078E0B95E4810
:103CD0000068002818DD5D48008803F007FC804676
:103CE00042460B4600205A4903F034FA0646594A28
:103CF000594B03F04BFC044658480CC8204603F0CF
:103D00006DF9564A03C21EE04E480078D8B94E48B5
:103D10000068002817DA4D48008803F0E7FB0646E4
:103D200032460B4600204A4903F014FA0446494A39
:103D3000494B03F02BFC804648480CC8404603F032
:103D400059FD464A03C24FF07E514548006803F0D2
:103D500059FF434908600846006803F027FF804682
:103D60000022404B03F0F6F9064600223E4B03F0DA
:103D700035F9044600223D4B03F008FC824603F06F
:103D800071FB324908800120394908602F480088BA
:103D9000441E04EBD4714A102C490988481E0021A6
:103DA000FFF700FF2548006803F089FB0446002266
:103DB0002C4B03F0E9FC34D8002020490860002196
:103DC0001A4800E02DE001F0FDFE0021184801F046
:103DD000F9FE0020264908601A490870022025498A
:103DE00008701E4903C9244A03C2002023490870F1
:103DF00040F2BB22002140F27750FFF7D3FE10487B
:103E00000068022807D100200D49086001201C49E4
:103E100008701C4908700021044801F0D3FEBDE879
:103E2000F09F00BFFBE70000002C014000040040B1
:103E30000008004000080140000C00404C01002038
:103E400018010020980000203000002044010020CC
:103E500040776B41A8C64B378941103F4000002096
:103E600034010020000024400000F03F00E09540B5
:103E7000240100203C000020500000200900002008
:103E8000760100207101002010B56FF0040001F0F0
:103E90004AFA2E4800682E49B0FBF1F02D4908700F
:103EA0000846007800EB4001C1EBC0104FF6FF71EF
:103EB00001EAC0002849088010BD0146254A127851
:103EC0004A434FF0E0235A6100229A611A46126970
:103ED00042F001021A6100BF4FF0E022106900F0C9
:103EE00001021AB100F48032002AF5D04FF0E0222E
:103EF000126922F001024FF0E0231A6100229A6158
:103F000070470146144A12884A434FF0E0235A6131
:103F100000229A611A46126942F001021A6100BF3A
:103F20004FF0E022106900F001021AB100F4803273
:103F3000002AF5D04FF0E022126922F001024FF082
:103F4000E0231A6100229A6170470000D800002027
:103F500000127A00580100205A01002000BF70476B
:103F600000BFFD4A128802F04002002AF9D0C2B216
:103F7000F94B1B1D1A80704710B586B0044601210D
:103F800044F2040000F018FF4FF40070ADF8140084
:103F900003208DF8160018208DF8170005A9EF48AA
:103FA00000F04EFC4FF48060ADF8140004208DF852
:103FB000170005A9E94800F043FC25208DF8000012
:103FC00003208DF801008DF8020001208DF8030018
:103FD000684601F05EF901940020ADF80800ADF8E4
:103FE0000A00ADF80C00ADF810000C20ADF80E0082
:103FF00001A9D94800F087FF012240F22551D64897
:1040000001F019F80121D44801F009F806B010BDFB
:1040100010B540F22551D04801F0F2F8002842D006
:104020002021CD4801F0D6F8012804D1CA4801F07A
:1040300067F8CB490870CA480078C0280AD1C94837
:10404000007818B1C7480078C02803D10020C649BD
:10405000087024E0C2480078C0280BD0C04800781F
:10406000C249C14A12788854BF480078401CBE49F2
:10407000087014E0BA480078C02810D1BA48007817
:1040800068B1B9480078012809D0B7480078B84924
:1040900008700020B44908700120B6490870B04883
:1040A0000078B049087010BD70B505460E46002472
:1040B00012E000BF4021A84801F08CF80128F9D196
:1040C000295DA54801F018F800BF4021A24801F081
:1040D00081F80128F9D1641CB442EAD370BD30B52F
:1040E00002460B4600201AE0802115E000F400444F
:1040F0003CB14FF6FF7404EA400041F221046040F5
:1041000003E04FF6FF7404EA400014780C4014B149
:1041100041F22104604049100029E7D1521C1C1EC5
:10412000A3F10105EBB2DFD130BD2DE9F04786B038
:104130004FF000080025B8F1000F50D1002429E00D
:104140008A48005DDB280CD18849601C085CDC28AB
:1041500007D1601CC4B2C02087494855681CC5B24D
:1041600016E08248005DDB280CD18049601C085CA9
:10417000DD2807D1601CC4B2DB207F494855681C8C
:10418000C5B205E07948005D7B494855681CC5B259
:10419000601CC4B2764800788442D1DBA81EC1B24C
:1041A0007548FFF79CFF00B274490880681E724989
:1041B000095CA81E704A105C41EA002000B27049F8
:1041C00008806E48B0F90000B1F90010884204D1AF
:1041D00008F1010000F0FF0801E04FF00008B8F11D
:1041E000010F6ED14FF0000860480078012801D11E
:1041F000644908705D480078022802D101206249B4
:1042000008705A480078032814D101205F490870CB
:104210005648C078012801D15D4908705348C078DC
:1042200040B95C48006828B95B48006810B90120B3
:104230005A4908704D48007804287DD158480078C4
:104240000128FAD1574800780128F6D1564908705C
:104250004948C0794849897940EA012000B2534968
:1042600008804548007A52490870434840794249DD
:10427000097940EA012000B24E4908800846B0F9A9
:1042800000004D49884209DB4A48B0F90000494224
:10429000884203DC01204949087002E000204749B8
:1042A00008704248B0F9000010F5967F0ADB3F48DD
:1042B000B0F90000B0F5FA7F04DC01204049087035
:1042C00003E0BCE100203E4908703C48007801282A
:1042D00041D13B4800780128FAD1002405E0264866
:1042E000005D38490855601CC4B2AC42F7DB314967
:1042F000B1F9001040F2DC52501A03F0E0F8324AF3
:10430000324BCDE9040102F069FE8146304A314B5F
:1043100003F03CF9064600222F4B02F01BFF2F4A08
:1043200003C22E4903C902F0B3FD2D4A03C2002285
:104330004FF080432A4900E065E103C903F026F904
:10434000284A294BCDE9000103F020F9274A284BE0
:10435000CDE902014EE05BE1003801400008014078
:1043600068010020690100206A0100208C02002001
:104370006B0100206C010020AA02002064010020D3
:10438000660100206D0100206E0100206F010020F9
:10439000700100201C010020180100207401002081
:1043A000030000200000002071010020980100207F
:1043B000730100208801002024FAFFFF750100200E
:1043C00076010020CC01002066BD18CAF925B14055
:1043D000F1D4C853FB2109400094D1409001002042
:1043E000A8010020D0B359F5B9A24C408195438B68
:1043F0006C2B5E4003F0CAF80646A24AA24B03F0BB
:10440000F9F9814602F092FD0022A04BCDE90401AA
:1044100003F0E2FA9E4A03C2002213469C4903C9F4
:1044200003F0B2F90AD800229A4B994903C903F064
:1044300071F803D8964903C9974A03C20021974AE5
:10444000116051609648B0F9000003F038F88146D9
:10445000944A954B02F0C2FD944A954BCDE9020176
:1044600002F0BCFD0646934A934B03F08FF80022FE
:10447000924BCDE9040102F06DFE884A03C28749E0
:1044800003C902F005FD8E4A03C200224FF08043AB
:104490008B4903C903F07AF881468A4A8A4B03F0B4
:1044A00075F80646894A8A4B03F070F8894A8A4BA8
:1044B000CDE9000103F09EF9CDE9020102F036FDDD
:1044C0000022864BCDE9040103F086FA7C4A03C240
:1044D000002213467A4903C903F056F90AD800228C
:1044E0007F4B774903C903F015F803D8744903C912
:1044F0007C4A03C27C487B490CC803C903F06CFAB0
:1045000006467A4A7A4B03F03FF916D87948007884
:1045100090BB0022784B744903C903F035F908D2E7
:1045200002207649086076490870032075490870B2
:1045300026E000207249087022E06B4869490CC8E7
:1045400003C903F049FA0646684A6F4B02F0E2FFDE
:1045500016D268480078012812D100226B4B6249BC
:1045600003C902F0D7FF08D20220644908606449F9
:10457000087003206349087002E000206049087059
:10458000634845490CC803C903F026FA0646574A52
:10459000574B03F0F9F817D85E48007898BB002213
:1045A0005D4B5B4903C902F0B5FF09D202205B49AC
:1045B000087004205349087002205949086037E008
:1045C00000205649087033E0514833490CC803C9EC
:1045D00003F002FA0646454A4B4B02F09BFF27D2F6
:1045E0004C480078012823D10022434B484903C995
:1045F00003F0CAF808D20220494908604749087008
:1046000004204049087013E00020444908700FE07E
:104610004248007810B13A48007848B94148B0F9AA
:1046200000001F4908804048B0F900003F49088059
:104630003F480078052802D101203E49087006B0A5
:10464000BDE8F08770B505460E4600240CE000BFBB
:104650008021394800F0BEFD0028F9D0295D364898
:1046600000F04AFD601CC4B2B442F0DB00BF402140
:10467000314800F0AFFD0028F9D000202F49086034
:1046800070BD000091CFAF56D36CD14000E85540CB
:10469000A80100200000434078010020A001002074
:1046A00098010020C1A8A44E60E4A040FB3A70CE5F
:1046B000083D7540F1D4C853FB2109400094D14016
:1046C000B0010020AAF1D24D624C814060764F1EAD
:1046D0001692794040943F4A2CEB1C4100B46C4048
:1046E00000004D408001002040000020FCA9F1D2D4
:1046F0004D62603F3C000020000014401801002083
:1047000076010020710100204D6260BF00804040B2
:10471000480000203D0000200000394075010020C5
:104720001C01002020000020220000208801002021
:104730008C020020720100200038014090012142CB
:104740000948804709480047FEE7FEE7FEE7FEE725
:10475000FEE7FEE7FEE7FEE7FEE7FEE70448054961
:10476000054A064B704700000B1C00083101000889
:104770002803002028090020280500202805002003
:1047800010B50446CC48844208D10121042000F031
:104790002DFB0021042000F029FB46E0C74884429D
:1047A00008D10121082000F021FB0021082000F0A1
:1047B0001DFB3AE0C248844208D10121102000F0DC
:1047C00015FB0021102000F011FB2EE0BD488442B3
:1047D00008D10121202000F009FB0021202000F059
:1047E00005FB22E0B848844208D10121402000F0B6
:1047F000FDFA0021402000F0F9FA16E0B3488442A7
:1048000008D10121802000F0F1FA0021802000F081
:10481000EDFA0AE0AE48844207D10121801500F08C
:10482000E5FA0021A01500F0E1FA10BD10B5012154
:10483000084600F0DBFA0021012000F0D7FA10BD95
:104840002DE9F04102460025002600200023002427
:10485000002791F803C00CF00F0591F803C00CF08D
:10486000100CBCF1000F03D091F802C04CEA050512
:1048700091F800C0BCF1000F31D0146800202BE08B
:104880004FF0010C0CFA00F3B1F800C00CEA03067B
:104890009E4220D183004FF00F0C0CFA03F7BC436B
:1048A00005FA03FC4CEA040491F803C0BCF1280F9C
:1048B00006D14FF0010C0CFA00FCC2F814C00AE05B
:1048C00091F803C0BCF1480F05D14FF0010C0CFA70
:1048D00000FCC2F810C0401C0828D1D31460B1F805
:1048E00000C0BCF1FF0F34DD546800202EE000F161
:1048F000080C4FF0010808FA0CF3B1F800C00CEAFC
:1049000003069E4221D183004FF00F0C0CFA03F7EF
:10491000BC4305FA03FC4CEA040491F803C0BCF163
:10492000280F05D100F1080C08FA0CF8C2F8148021
:1049300091F803C0BCF1480F07D100F1080C4FF00B
:10494000010808FA0CF8C2F81080401C0828CED3E1
:104950005460BDE8F0814FF6FF7101800221817043
:104960000421C17070470246002093680B400BB1D0
:10497000012000E0002070470146886880B270473F
:1049800002460020D3680B400BB1012000E000205C
:1049900070470146C86880B2704701617047416145
:1049A00070470AB1016100E041617047C160704722
:1049B0004FF480320A438261816182618269826937
:1049C000704702460020434B18684FF6807318402A
:1049D00040EA021008433F4B186070473E49C861E7
:1049E0007047F0B50A46002300240021002500F09E
:1049F0000046B6F1004F02D1364EF16901E0354E66
:104A00007168C0F3034583B200F44016B6F5401F49
:104A100008D121F070612F4E766826F070662D4F18
:104A20007E6012E000F48016B6F5801F06D10326E2
:104A300006FA05F4A14341F0706106E0460D360127
:104A400003FA06F6B14341F0706122B1460D36011A
:104A500003FA06F6314300F00046B6F1004F02D1EA
:104A60001C4EF16101E01B4E7160F0BD30B50022BB
:104A70008B071C0F0F2303FA04F2164B08338C101C
:104A800053F824309343134C08348D1044F82530E8
:104A900023468C1053F824308C07240F00FA04F4BA
:104AA00023430C4C08348D1044F8253030BD0A499E
:104AB000DC3108607047000000080140000C014034
:104AC000001001400014014000180140001C01408A
:104AD000002001400000014000002042DF48006843
:104AE00040F00100DD49086008464068DC490840A4
:104AF000DA49486008460068DA490840D749086042
:104B00000846006820F4802008600846406820F4C9
:104B1000FE0048604FF41F0088607047CF49096865
:104B200021F48031CD4A11601146096821F48021B9
:104B30001160B0F5803F03D0B0F5802F0ED106E0B4
:104B4000C649096841F48031C44A116007E0C3498D
:104B5000096841F4A021C14A116000E000BF00BF14
:104B6000704710B501460022002300204A11012A97
:104B700002D1BA4C236806E0022A02D1B74C236A5C
:104B800001E0B64C636A01F01F02012494401C400E
:104B90000CB1012000E0002010BD38B500200090CD
:104BA0000024002500BF3120FFF7DBFF05460098F9
:104BB000401C00900098B0F5A06F01D0002DF2D0FD
:104BC0003120FFF7CEFF08B1012400E00024204689
:104BD00038BD01460020A14A106820F0F80040EAE4
:104BE000C10010607047A04908607047024600206D
:104BF0009A4B586820F47C1042EA01031843974B03
:104C00005860704798490866704701460020934AEB
:104C1000506820F003000843506070478F48406898
:104C200000F00C007047014600208C4A506820F0CC
:104C3000F00008435060704701460020874A5068E2
:104C400020F4E06008435060704701460020834A2A
:104C5000506820F4605040EAC1005060704729B1AC
:104C60007E4A527A02437D4B5A7204E07B4A527A62
:104C700082437A4B5A7270477B49D831086070473B
:104C800001460020754A506820F4404008435060B7
:104C900070470021714A20321170704A82F820104A
:104CA000012802D004280AD104E001216B4A2032F5
:104CB000117005E00521694A2032117000E000BF43
:104CC00000BF70476949086070476449096A014339
:104CD000624A11627047654944390860704730B5CF
:104CE00000210022002400235C4D6D6805F00C01BA
:104CF00021B1042905D0082923D105E05C4D0560C8
:104D000022E05B4D05601FE0544D6D6805F47012A4
:104D1000524D6D6805F48034022505EB92421CB9B2
:104D2000544D554305600BE04C4D6D6805F400355E
:104D30001DB1504D5543056002E04D4D5543056092
:104D400002E04B4D056000BF00BF444D6D6805F0AB
:104D5000F0010909484D6B5C0568DD4045603F4D39
:104D60006D6805F4E061090A434D6B5C4568DD4000
:104D700085603A4D6D6805F46051C90A3E4D6B5C23
:104D80004568DD40C560354D6D6805F44041890BCF
:104D90003A4D6B5CC568B5FBF3F5056130BD29B1D3
:104DA0002E4A526902432D4B5A6104E02B4A526944
:104DB00082432A4B5A61704729B1284A92690243BB
:104DC000264B9A6104E0254A92698243234B9A61FB
:104DD000704729B1214AD2690243204BDA6104E0CD
:104DE0001E4AD26982431D4BDA61704729B11B4AC2
:104DF000D2680243194BDA6004E0184AD268824351
:104E0000164BDA60704729B1144A12690243134BFA
:104E10001A6104E0114A12698243104B1A6170470B
:104E200012494039086070470F49C86470470B4900
:104E3000C87170470948406A40F08070074948626D
:104E4000704701460020054A92680A400AB10120D5
:104E500000E000207047014988727047001002404E
:104E60000000FFF8FFFFF6FE0000424280044242CD
:104E700000127A0000093D00B8010020C80100209E
:104E800010B50446FB48844209D101218803FFF78D
:104E9000ADFF00214FF48040FFF7A8FF32E0F64855
:104EA000844209D101214804FFF7ADFF00214FF4EE
:104EB0000030FFF7A8FF25E0F048844209D1012126
:104EC0008804FFF7A0FF00214FF48020FFF79BFF2D
:104ED00018E0EB48844209D10121C804FFF793FF91
:104EE00000214FF40020FFF78EFF0BE0E5488442DD
:104EF00008D101210805FFF786FF00214FF480103B
:104F0000FFF781FF10BD2DE9F04786B005460E463C
:104F10000024A24600BFA1460027B08900B100BF0F
:104F20002F462C8A4CF6FF700440F08804432C82F4
:104F3000AC894EF6F3100440B0883189084371897A
:104F400008430443AC81AC8A4FF6FF400440B0896B
:104F50000443AC8201A8FFF7C2FEC648874202D1D3
:104F6000DDF810A001E0DDF80CA0A88900F40040F5
:104F700040B10AEBCA0000EB0A1031684900B0FBEF
:104F8000F1F807E00AEBCA0000EB0A10316889006B
:104F9000B0FBF1F86420B8FBF0F0040120096421B3
:104FA00001FB1089A88900F4004040B1322000EBD9
:104FB000C900B0FBF1F000F00700044308E0322024
:104FC00000EB09106421B0FBF1F000F00F00044386
:104FD0002C8106B0BDE8F0874FF416510160002126
:104FE0008180C18001810C21418100218181704734
:104FF00010B502460020108A4FF2FF0318400B88BC
:105000004C8823438C882343CC8823431843108245
:1050100010BD0021018041808180C180704721B195
:10502000828942F40052828104E082894DF6FF7346
:105030001A4082817047F0B50346002400260025FF
:10504000002040F66A17B94200D100BF1846C1F3EC
:10505000421401F01F06012707FA06F5012C01D1C1
:105060000C3004E0022C01D1103000E014301AB1F1
:1050700007682F43076002E00768AF430760F0BD91
:105080001AB1838A0B43838202E0838A8B43838233
:105090007047028A4FF6F0731A400282028A0A436E
:1050A0000282704782894FF2FF731A40828182899F
:1050B0000A438281704721B1828942F002028281D3
:1050C00004E082894FF6FD731A4082817047028A9C
:1050D0004FF6DF731A400282028A0A430282704747
:1050E00021B1028A42F48042028204E0028A4BF635
:1050F000FF731A4002827047C1F308028280704732
:1051000001468888C0F308007047818941F0010199
:1051100081817047028BD2B20283028B42EA012264
:1051200002837047028B02F47F420283028B0A43A0
:105130000283704721B1828A42F02002828204E019
:10514000828A4FF6DF731A408282704721B1828AC9
:1051500042F01002828204E0828A4FF6EF731A4016
:105160008282704721B1828A42F00802828204E082
:10517000828A4FF6F7731A408282704721B1828982
:1051800042F40042828103E08289C2F30E028281EE
:10519000704721B1828A42F40062828204E0828AEE
:1051A0004FF2FF731A4082827047828A4FF6FB7378
:1051B0001A408282828A0A438282704721B1828A9F
:1051C00042F00202828204E0828A4FF6FD731A40A6
:1051D0008282704702460020B1F5007F00D100BFF7
:1051E00013880B400BB1012000E00020704701F450
:1051F0000072B2F5007F00D100BFCA430280704741
:1052000070B50246002400230025002040F66A16EF
:10521000B14200D100BFC1F3421501F01F030126C6
:1052200006FA03F3012D02D19689334006E0022DE0
:1052300002D1168A334001E0968A33400C120126CF
:1052400006FA04F41688344013B10CB1012000E0D2
:10525000002070BD10B50022002340F66A14A14260
:1052600000D100BF0A1201249440A3B2DC430480A1
:1052700010BD0000003801400044004000480040DC
:10528000004C00400050004031490143314A116058
:10529000704770B5002100230F22C47804B32D4C51
:1052A000246804F4E064C4F5E064210AC1F1040355
:1052B000CA40447804FA03F1847814402143090178
:1052C000254C0678A155047804F01F050124AC4054
:1052D00005786D11AD0005F1E025C5F8004109E044
:1052E000047804F01F050124AC401C4D06787611AB
:1052F00045F8264070BD1A4A0A400243154B1B1F51
:105300001A60704739B1134A121D12680243114BDB
:105310001B1D1A6006E00F4A121D126882430D4BD6
:105320001B1D1A607047042808D14FF0E02109695D
:1053300041F004014FF0E022116107E04FF0E0215D
:10534000096921F004014FF0E0221161704700006B
:105350000000FA050CED00E000E400E080E100E070
:1053600080FFFF1F10B50446FE48844208D101218A
:10537000C014FFF73BFD0021E014FFF737FDC4E048
:10538000B4F1804F08D101210846FFF73CFD002110
:105390000120FFF738FDB8E0F348844208D101212D
:1053A0000220FFF730FD00210220FFF72CFDACE0CA
:1053B000EE48844208D101210420FFF724FD00219A
:1053C0000420FFF720FDA0E0E948844208D1012134
:1053D0000820FFF718FD00210820FFF714FD94E0D6
:1053E000E448844208D101211020FFF70CFD002180
:1053F0001020FFF708FD88E0DF48844208D1012132
:105400002020FFF700FD00212020FFF7FCFC7CE0BE
:10541000DA48844208D101214014FFF7E7FC00215B
:105420006014FFF7E3FC70E0D548844209D1012104
:10543000C804FFF7DBFC00214FF40020FFF7D6FC87
:1054400063E0D048844209D101210805FFF7CEFC72
:1054500000214FF48010FFF7C9FC56E0CA4884428F
:1054600009D101214805FFF7C1FC00214FF40010CC
:10547000FFF7BCFC49E0C548844208D10121402027
:10548000FFF7C1FC00214020FFF7BDFC3DE0C04814
:10549000844208D101218020FFF7B5FC0021802043
:1054A000FFF7B1FC31E0BB48844208D101218015EF
:1054B000FFF7A9FC0021A015FFF7A5FC25E0B648E1
:1054C000844209D101210804FFF790FC00214FF428
:1054D0008030FFF78BFC18E0B048844209D10121ED
:1054E0004804FFF783FC00214FF40030FFF77EFCF7
:1054F0000BE0AB48844208D101218804FFF776FC19
:1055000000214FF48020FFF771FC10BD00220288BB
:10551000944B98420ED0994B98420BD0B0F1804FEB
:1055200008D0914B984205D0904B984202D0904BB6
:10553000984204D14FF68F731A404B881A438D4B13
:10554000984207D08C4B984204D04FF6FF431A4044
:10555000CB881A4302808B8883850B880385814B17
:1055600098420BD0854B984208D08B4B984205D07F
:105570008A4B984202D08A4B984201D10B7A03861B
:1055800001238382704770B5002400220023058C1C
:105590004FF6FE7635400584028C8388048B4FF6E7
:1055A0008F752C40B51E2C400D882C43751E2A404B
:1055B0000D892A434D882A436A4DA8420BD06F4D6E
:1055C000A84208D0744DA84205D0744DA84202D01C
:1055D000734DA84213D14FF6F7752A404D892A43DF
:1055E0004FF6FB752A408D882A434FF6FF652B4006
:1055F0004FF6FF552B408D892B43CD892B4383805C
:105600000483CD888586028470BD70B50024002295
:105610000023058C4FF6EF7635400584028C838895
:10562000048B48F6FF752C404FF6FF452C400D8843
:105630004FF6FF7606EA05252C434FF6DF752A4024
:105640000D8906EA05152A434D8806EA05152A4301
:10565000444DA84202D0494DA8421DD14FF67F7556
:105660002A404D894FF6FF7606EA05152A434FF684
:10567000BF752A408D8806EA05152A434FF6FF3587
:105680002B404FF2FF752B408D8906EA85052B4391
:10569000CD8906EA85052B4383800483CD88058761
:1056A000028470BD70B5002400220023058C4FF6E3
:1056B000FF6635400584028C8388848B4FF68F7596
:1056C0002C404FF6FC752C400D882C434FF6FF55AF
:1056D0002A400D894FF6FF7606EA05252A434D88B4
:1056E00006EA05252A431F4DA84202D0234DA842B1
:1056F0001DD14FF2FF752A404D894FF6FF7606EA1D
:1057000005252A434FF6FF352A408D8806EA0525F0
:105710002A434EF6FF752B404DF6FF752B408D89C1
:1057200006EA05152B43CD8906EA05152B43838030
:105730008483CD888587028470BD70B500220023E4
:105740000024058C4EF6FF7635400584038C848852
:10575000828B48F6FF752A404FF6FF452A400D8898
:1057600020E00000002C0140000400400008004040
:10577000000C0040001000400014004000340140C4
:10578000004C01400050014000540140001800400E
:10579000001C004000200040004001400044014047
:1057A000004801404FF6FF7606EA05252A434DF6EC
:1057B000FF752B400D8906EA05352B434D8806EA17
:1057C00005352B43FA4DA84202D0FA4DA84208D124
:1057D0004BF6FF752C408D894FF6FF7606EA85154E
:1057E0002C4384808283CD88A0F84050038470BD10
:1057F000828B4FF2FF331A408283828B4FF6FF7306
:1058000003EA01231A4382837047F0B50C4615461C
:10581000002200210026078C4EF6FF7C07EA0C07C9
:105820000784828B018C4FF6FF7707EA043640F637
:10583000FF473A404FF6FF7707EA05273A434FF60E
:10584000FF7707EA03373A43D94FB8420ED0D94F12
:10585000B8420BD0B0F1804F08D0D74FB84205D036
:10586000D64FB84202D0D64FB84206D14DF6FF7798
:10587000394046F48057394305E047F6FF57394031
:1058800044F48057394382830184F0BD828B4FF604
:10589000F3731A408283828B0A4382837047F0B588
:1058A0000C461546002200210026078C4FF6FF6C9F
:1058B00007EA0C070784828B018C4FF6FF7707EA13
:1058C00004264FF60C773A404FF6FF7707EA0317A6
:1058D0002F433A43B64FB8420ED0B64FB8420BD022
:1058E000B0F1804F08D0B44FB84205D0B34FB842A2
:1058F00002D0B34FB84206D14FF6FF57394046F4B5
:105900008077394305E04FF2FF57394044F4807700
:10591000394382830184F0BD028B4FF2FF331A407A
:105920000283028B4FF6FF7303EA01231A430283BB
:105930007047F0B50C461546002200210026078C62
:105940004FF6EF7C07EA0C070784028B018C4FF6B9
:10595000FF7707EA041640F6FF473A404FF6FF7715
:1059600007EA03373A434FF6FF7707EA05273A433A
:105970008F4FB8420ED08F4FB8420BD0B0F1804F4E
:1059800008D08D4FB84205D08C4FB84202D08C4F12
:10599000B84206D14FF6DF77394046F01007394359
:1059A00005E04FF65F77394044F010073943028332
:1059B0000184F0BD028B4FF6F3731A400283028B11
:1059C0000A4302837047F0B50C46154600220021B9
:1059D000068C4FF6FE773E400684028B018C4FF614
:1059E0000C7632407E1C06EA03162E433243704E7C
:1059F000B0420ED06F4EB0420BD0B0F1804F08D005
:105A00006D4EB04205D06D4EB04202D06C4EB042E9
:105A100006D14FF6FD76314044F00106314305E0F2
:105A20004FF6F576314044F001063143028301849C
:105A3000F0BD70B505460C465D4885420ED05D4808
:105A400085420BD0B5F1804F08D05B48854205D028
:105A50005A48854202D05A48854200D100E000BF32
:105A6000208850B92389A28861882846FFF7ABFFB8
:105A7000E1882846FFF79EFF25E0208804280AD108
:105A80002389A28861882846FFF753FFE1882846CA
:105A9000FFF742FF17E0208808280AD12389A2884F
:105AA00061882846FFF7FBFEE1882846FFF7EEFEF7
:105AB00009E02389A28861882846FFF7A6FEE188CD
:105AC0002846FFF795FE70BD2DE9F04105460C46CE
:105AD00000260127608808B9022600E00026A08879
