:020000040800F2
:10000000E0080020313B0008B9110008BB110008CE
:10001000BF110008C3110008C7110008000000004C
:10002000000000000000000000000000CB110008EC
:10003000CD11000800000000CF110008D111000808
:100040004B3B00084B3B00084B3B00084B3B000878
:100050004B3B00084B3B00084B3B00084B3B000868
:100060004B3B00084B3B00084B3B00084B3B000858
:100070004B3B00084B3B00084B3B00084B3B000848
:100080004B3B00084B3B00084B3B00084B3B000838
:100090004B3B00084B3B00084B3B00084B3B000828
:1000A0004B3B0008631500084B3B00084B3B000826
:1000B0001F140008A33200084B3B00084B3B00080C
:1000C0004B3B00084B3B00084B3B00084B3B0008F8
:1000D0004B3B0008C13500085D2800084B3B000879
:1000E0004B3B00084B3B00084B3B00084B3B0008D8
:1000F0004B3B00084B3B00084B3B00084B3B0008C8
:100100004B3B00084B3B00084B3B00084B3B0008B7
:100110004B3B00084B3B00084B3B00084B3B0008A7
:100120004B3B00084B3B00084B3B00084B3B000897
:1001300000F002F800F05AF80AA090E8000C82449F
:100140008344AAF10107DA4501D100F04FF8AFF27C
:10015000090EBAE80F0013F0010F18BFFB1A43F0A5
:1001600001031847BC670000DC6700000A444FF039
:10017000000C10F8013B13F0070408BF10F8014B06
:100180001D1108BF10F8015B641E05D010F8016B4B
:10019000641E01F8016BF9D113F0080F1EBF10F8AF
:1001A000014BAD1C0C1B09D16D1E58BF01F801CBD2
:1001B000FAD505E014F8016B01F8016B6D1EF9D555
:1001C0009142D6D37047000000230024002500266A
:1001D000103A28BF78C1FBD8520728BF30C148BFAA
:1001E0000B6070471FB51FBD10B510BD05F094FB27
:1001F0001146FFF7F7FF00F023FE05F0B2FB03B452
:10020000FFF7F2FF03BC03F081F9000070B5002492
:10021000FE484078000200B2FC49897840EA0105B6
:10022000ECB9E81CC1B2F94803F031FA00B2F84960
:100230000880F649281D095CF44AE81C105C41EA74
:10024000002000B2F3490880F148B0F90000B1F98C
:100250000010884202D1601CC4B200E00024012CCE
:1002600007D1EA480078042802D1601CC4B200E03B
:100270000024022C34D1E5484079E449097940EA68
:10028000012000B2E44908800846B0F90000E349C3
:10029000884208DBE048B0F900004942884202DCAD
:1002A0000120DF490870D948C079D849897940EAE6
:1002B000012000B2DB4908800846B0F9000010F5C3
:1002C000967F08DB0846B0F90000B0F5FA7F02DC43
:1002D0000120D54908700120D4490870D44908701C
:1002E00070BD2DE9FC5F0220D2490870D249087028
:1002F0000120D2490870D2490870D248D24908601A
:100300000720D24908700320D1490870D1490870EC
:100310000720D14908703C20D049086001F0C4FC96
:1003200001F0A9FE02F008FD1E22B849002002F0EB
:1003300099FDCB48007805F0D3FD04460D46C24830
:10034000006806F03BF802460B46CDE900010020AC
:10035000C44905F0F9FB804600224FF0804305F0C8
:100360000FFE064622462B4605F00AFE824605F0A1
:1003700073FDBD490860BD48007805F0B1FD064633
:100380000F46B1480168BA4806F0A6F8019006F099
:1003900015F8824600224FF0804305F0F1FD8046BB
:1003A00032463B4605F0ECFD044605F055FDB149EB
:1003B0000860AD480068B049B1FBF0F0AF49088073
:1003C000AC480068AC49B1FBF0F0AD4908800621AB
:1003D000AC4802F0DCFAFFF719FF40F2775140F623
:1003E000EF2001F080FA40F2775140F6EF2001F063
:1003F000B9FA0020BDE8FC9F7CB5A348007801282D
:100400007ED1A24800780028FAD19F490870A04800
:100410000078012808D19F480078012804D10821DC
:100420009D4803F019F909E09948007810B19948FE
:10043000007818B90821994803F00EF9954800781A
:1004400001283ED1002093490870774800780128A0
:1004500006D1002092490860924903C9924A03C21A
:100460007048B0F9000005F024FD04468D480CC822
:10047000204605F0B9FE8D4A03C28D4A8D4B8B494B
:1004800003C905F061FB044605F0B6FC8A49086023
:1004900008460068B0B90021884804F08BFD0021AF
:1004A000874804F087FD02206249087000208549D2
:1004B000086001205C490870002079490860824981
:1004C00008708EE07C480068002842DD00217B48EF
:1004D00004F070FD00217A4804F06CFD7648006855
:1004E000784908607948C07820F0200020307749AA
:1004F000C8700846C07820F080008030C87000E0E6
:10050000EEE008460168009100798DF804000320B0
:10051000019A01F04FFB00206D49086045490870C1
:1005200040F27752002140F6EF2002F03BFE00201F
:100530003D4908700121614804F03CFD01216548F6
:1005400004F038FD00205649086001205E4908701B
:1005500047E059480068002843DA0021574804F072
:1005600029FD0021564804F025FD5349086800285C
:1005700001DB014600E04142524A11605348C07815
:1005800020F0200020305149C8700846C07820F083
:1005900080008030C87008460168009100798DF8AD
:1005A00004000320019A01F005FB40F2775200217C
:1005B00040F6EF2002F0F6FD0120454908601D4994
:1005C00008700020184908703549086001203E492C
:1005D00008700121394804F0EDFC01213D4804F088
:1005E000E9FC2B48007801287AD1002028490870BE
:1005F00000214FF0804004F0DDFC0948007801281C
:1006000073D100203449086034496BE0B201002006
:10061000680100206A0100207C010020B0B9FFFFC2
:10062000A10000207E010020A00000200100002089
:1006300002000020280000202900002000000020E7
:10064000030000206666E63F7800002007000020D7
:10065000040000200500002006000020700000209B
:100660006C00002000807640640000206D000020B7
:100670000000B4436800002000A24A04A200002049
:10068000A4000020A60000207501002077010020B2
:10069000790100207A010020BA000020CA00002061
:1006A000F8000020380000204800002058000020FA
:1006B000922449922449C23F1C00002000080040B7
:1006C0000004004018000020090000200A0100205A
:1006D000AC012242002C0140FC0000203000002030
:1006E000D0E002E003C9FE4A03C2FE48B0F90000B0
:1006F00005F0DFFB0446FC480CC8204605F074FDFD
:10070000FA4A03C2FA4AFB4BF84903C905F01CFA3E
:10071000044605F071FBF849086008460068D8B93E
:100720000220F64908700021F54804F043FC00213E
:100730004FF0804004F03EFC4FF0804004F00AF897
:100740000020F0490860F04908600120EF49087076
:100750000020EF49087095E0E7480068002844DD74
:100760000021E74804F026FC00214FF0804004F00F
:1007700021FC4FF0804003F0EDFFDF480068E149C5
:100780000860E448C07820F020002030E149C870BB
:100790000846C07820F080008030C87008460168A4
:1007A000009100798DF804000320019A01F076F998
:1007B0000120D9490860D149087040F277520021E0
:1007C00040F6EF2002F025FD0020D0490870CE4908
:1007D00008600120CE4908700121C94804F0EAFBF5
:1007E0000121CE4804F0E6FB4CE0C3480068002835
:1007F00048DA0021C24804F0DDFB00214FF08040C0
:1008000004F0D8FB4FF0804003F0A4FFBA49086819
:10081000002801DB014600E04142BA4A1160BD48B0
:10082000C07820F020002030BA49C8700846C0784F
:1008300020F080008030C87008460168009100797F
:100840008DF804000320019A01F028F90020B24934
:10085000086040F27752002140F6EF2002F0D9FC08
:100860000020A6490870A9490870A749086001201E
:10087000A74908700121A24804F09CFB0121A74868
:1008800004F098FB00207CBD2DE9FC4100250024EC
:1008900000260027C020A24908708220487000204E
:1008A0008870914903C905F0A7FA00B29D490880F4
:1008B0009D4903C905F0A0FA00B29C4908809C48F4
:1008C0000078012839D191480078012835D10B22D0
:1008D0009849002002F0D7FA0220954908708B4908
:1008E00008709548C07820F0200020309249C870E8
:1008F0000846C07820F08000C87008460168009162
:1009000000798DF804000320019A01F053F9814821
:10091000C07820F0200020307E49C8700846C0789A
:1009200020F08000C87008460168009100798DF8B9
:1009300004000320019A01F0B1F87A480088000A07
:1009400077490871774800787C4908700846007834
:100950007349487100208871C87174480088000A82
:1009600008727248007876490870084600786C4929
:10097000487274480088000A887272480078724988
:100980000870084600786649C8727048006830B937
:100990006E48001D006810B90920087322E06B48FA
:1009A000006838B96948001D0068012802D15C4917
:1009B000087317E065480068012807D16348001DE7
:1009C000006818B90820564908730BE05F480068B2
:1009D000012807D15D48001D0068012802D10020D0
:1009E0004F4908734C487438006838B94A4884380D
:1009F000006818B903204A49487325E0464874380E
:100A00000068012808D1444884380068012803D1CF
:100A100000204349487317E03F48743800680128B4
:100A200007D13D488438006818B902203C49487312
:100A30000AE039487438006830B9374884380068AB
:100A4000012801D1364948732C48007820B101288B
:100A500004D0022806D103E0012604E0022602E0C9
:100A6000002600E000BF00BF3948007820B101280F
:100A700004D0022806D103E0012704E0022702E0A7
:100A8000002700E000BF00BF07EB86002449887301
:100A90003048007810B13048007868B91E48743882
:100AA0000068012808D11C4884380068012803D157
:100AB00002201B49C87373E025480078022803D13F
:100AC0000E48007802284CD013487438006801287A
:100AD00047D1114884380068012842D103203DE005
:100AE000400000207C010020300000205000002049
:100AF0009A9999999999D93F2400002029000020BA
:100B0000000C004020000020FC000020A10000207C
:100B10000A0000200F010020A4012242002C014005
:100B2000D00100200E000020380000200C00002022
:100B3000A0000020940100200A01002014000020E1
:100B4000150000201801002008000020208121420B
:100B5000280000200000002003000020FE49C87388
:100B60001EE0FE480078022810D1FD4800780228D7
:100B70000CD1FC480068012808D1FA4810380068F8
:100B8000012803D10420F449C87309E0F54800683E
:100B900018B1F4481038006810B90520EE49C87340
:100BA0000C20ED49C8700F21EB48401C02F06FFD8E
:100BB00000B2ED49088008460088000AEB49087039
:100BC00008460078E4490874E7480078E849087066
:100BD00008460078E0494874C020E6490870601C67
:100BE000C4B2012522E0DC48405DC02809D1DB20E9
:100BF000E0490855601CC4B2DC200855601CC4B232
:100C000012E0D548405DDB2808D1DA490855601C60
:100C1000C4B2DD200855601CC4B205E0CE48405D7A
:100C2000D4490855601CC4B2681CC5B2122DDADB69
:100C3000C020D0490855601CC1B2CE4802F00CFD5E
:100C4000BDE8FC811CB5CC48007801287ED100208D
:100C5000C9490870C9480078012865D10821C848E9
:100C600002F0FAFCC748C07820F020002030C549C7
:100C7000C8700846C07820F080008030C8700846F0
:100C80000168009100798DF804000320019A00F0BA
:100C900091FFBD48C07820F020002030BA49C870CC
:100CA0000846C07820F080008030C870084601688F
:100CB000009100798DF804000320019A00F0EEFE07
:100CC0000020AE4908700120A64974310860A4498B
:100CD00008700020AD49C1F8AC01A0490870AC49CA
:100CE0000870AC490870AC480068012807D10121A0
:100CF000AA4804F05FF90020A949087003E0002128
:100D0000A64804F057F9A448001D0068012807D13F
:100D10000121A44804F04EF90020A349087003E023
:100D20000021A04804F046F9A048007801288DD1A0
:100D300000209E4908700821914802F08DFC9548DA
:100D4000007801287AD19248007800E076E0012806
:100D500074D197480068002811DD0021914804F003
:100D600029F901209049087092480068924908606A
:100D700001208D49087002207949087011E08C48E3
:100D8000006800280DDA0021864804F013F90120DC
:100D900085490870874800688749086002207049C3
:100DA00008708648006800280EDD00217B4804F0AA
:100DB00001F901207A49087081480068814908607A
:100DC00002206649087011E07C48006800280DDAAE
:100DD0000021724804F0EEF801207149087078484B
:100DE00000687849086002205C4908700420764950
:100DF000087000204870062088700020C870734872
:100E00000088000A087171480078487170480088AD
:100E1000000A88716E480078C871002008720921A4
:100E2000694802F034FC00B26A490880084600882C
:100E3000000A6549487267480078887200201CBD26
:100E40001CB5002402F0F8FA4FF4A06003F014FC83
:100E50004FF4E13002F068FB4FF4165001F0B0FCA3
:100E600001F04EFC00F062FC00F0D7FC012241F6DC
:100E70001F41092002F02CF9FFF733FA69E15648C7
:100E8000007801280BD100205349087002F0D9FCEA
:100E90001E21524804F0F3FC002051490870FFF76E
:100EA000D1FE50480078012806D100204D49087035
:100EB0000E214D4802F0D0FB4C480078012804D1A7
:100EC00000204A490870FFF7DFFC494800780128F4
:100ED00006D0022807D0032806D004280CD107E04A
:100EE000FFF78AFA09E008E0002002F00AF804E0BF
:100EF000002002F06DF800E000BF00BF3D48007820
:100F0000012804D100203B49087001F05CFD3A48FB
:100F100000680228B2D30020374908601E48001D2F
:100F20000068B8B90E480078012813D11948007834
:100F300080B900211B4804F03DF8022008490870E0
:100F400001201949087000201949086000212B4A26
:100F5000116055E073E00000D0010020280000205F
:100F60002900002030012242100000201200002041
:100F700013000020EE010020730100207401002006
:100F8000C20000200A0100200F01002000002242C0
:100F900000000020030000202081214200080040C2
:100FA000A0000020000C0040A100002078010020DB
:100FB00024000020FC000020200000201C00002055
:100FC000F800002018000020940100200E000020EE
:100FD0000C00002068010020700100203E0200206B
:100FE0006E01002071010020AC0000207201002081
:100FF0007501002016010020F400002030000020C0
:101000005160544A1160516001205349087053499E
:1010100008705348C07820F0200020305049C87034
:101020000846C07820F08000C8700846016800912A
:1010300000798DF804000320019A00F02FFD494843
:10104000006800283CD1484800780028FAD1474879
:10105000007800287DD10021454803F0ABFF012036
:101060004449087000204449086002203E49087045
:1010700000214248424AC2E900101046D0E900105F
:10108000404AC2E9001000203F4908603748007814
:10109000012816D13D48C07820F0200020303B497F
:1010A000C8700846C07820F08000C8700846016803
:1010B000009100798DF804000320019A00F07AFD78
:1010C00047E02A480078002843D12A4908700120C7
:1010D000264908702E4908602349087000202A49D3
:1010E000086001202B49087000202B490880084621
:1010F000B0F9000004F0DDFE054621480CC8284682
:1011000005F072F8254A03C2254A264B234903C934
:1011100004F01AFD054604F06FFE1749086000242C
:1011200005E02148005D21490855601CC4B20C2C23
:10113000F7DB11490868002801DB014600E0414265
:101140001B4A116001201B4908700121084803F067
:1011500031FF94E640000020030000200200002040
:101160000F010020208121422800002000000020E3
:1011700000080040A00000201C0000200010834058
:101180003800002048000020F80000200A0100205C
:10119000AC012242010000207E0100205800002006
:1011A000922449922449C23FD20000209401002099
:1011B0001800002009000020704700BFFEE700BFB4
:1011C000FEE700BFFEE700BFFEE7704770477047CD
:1011D000704700000CB50020019000906C4800683A
:1011E00040F480306A49086000BF6948006800F434
:1011F000003000900198401C0190009818B90198A7
:10120000B0F5A06FF1D16248006800F4003010B171
:101210000120009001E0002000900098012843D1B7
:101220005C48006840F010005A49086008460068B1
:1012300020F0030008600846006840F002000860E3
:10124000534840685249486008464068486008462C
:10125000406840F4806048600846406820F47C1094
:1012600048600846406840F4E81048600846006856
:1012700040F08070086000BF4548006800F00070D2
:101280000028F9D04248406820F0030040494860F7
:101290000846406840F00200486000BF3C48406893
:1012A00000F00C000828F9D10CBD10B5FFF792FF33
:1012B00010BD10B53648006840F0010034490860A0
:1012C000084640683449084031494860084600688B
:1012D000324908402E4908600846006820F4802002
:1012E00008600846406820F4FE0048604FF41F0084
:1012F0008860FFF7DAFF4FF000602949086010BDF1
:1013000010B5002100200022214B5B6803F00C0186
:1013100021B1042906D0082928D107E0214B224C0D
:10132000236027E01F4B204C236023E0184B5B68B1
:1013300003F47010164B5B6803F48032022303EB56
:10134000904022B9194B4343174C23600DE0104BDA
:101350005B6803F4003323B1144B4343124C236006
:1013600003E0104B4343104C236003E00D4B0E4C45
:10137000236000BF00BF064B5B68C3F303130C4C34
:10138000E15C094B1B68CB40074C236010BD00009B
:1013900000100240002002400000FFF8FFFFF6FEB0
:1013A00008ED00E000127A00E000002000093D0096
:1013B000E40000207FB505460C460121084602F0F6
:1013C00000FF4FF0804003F0C5F9ADF80850ADF8CC
:1013D00004400020ADF80A00ADF8060001A94FF066
:1013E000804003F08BFA0121880704F0A9F801225C
:1013F0001146900703F0F9FD1C208DF80000022033
:101400008DF801008DF8020001208DF80300684678
:1014100003F037F90121880703F0CCFD7FBD2DE9EA
:10142000F05F0121880704F08EF800287ED00121AA
:10143000880704F099F899480068401C97490860AB
:1014400097480068022871D19648007860B996489C
:101450000068002808DD954A954B964903C904F0B9
:10146000BFFA944A03C20EE08E48007858B98E48FD
:101470000068002807DA8D4A8D4B8E4903C904F0B5
:10148000B3FE8C4A03C24FF07E518B48006804F0D3
:10149000C1FF894908600846006804F08FFF804654
:1014A0000022864B04F050FB06460022844B04F0D9
:1014B00097FA04460022834B04F062FD824604F052
:1014C000CBFC814908800120804908607E48008863
:1014D000441E04EBD4714A107B490988481E002140
:1014E00001F097FE6D48006804F0E3FC044600221A
:1014F000724B04F043FE32D8002068490860002196
:101500004FF0804003F056FD0021714803F052FD7A
:1015100000206E4908606349087002206D49087018
:1015200000206D4908705E48006800E017E002285E
:101530000ED100205A4908600120684908706849A6
:10154000087040F27752002140F6EF2001F061FE72
:1015500000214FF0804003F02DFDBDE8F09F00BF5B
:10156000FBE710B55F48008820F001005D49088066
:101570005D4800680F2804D25B480068401C5A4947
:1015800008605A48007860B959480068002808DDAA
:10159000584A594B594903C904F022FA574A03C221
:1015A0000EE05248007858B951480068002807DA20
:1015B000504A514B514903C904F016FE4F4A03C229
:1015C0003848007860B938480068002808DD374A94
:1015D000374B384903C904F003FA364A03C20EE018
:1015E0003048007858B930480068002807DA2F4A98
:1015F0002F4B304903C904F0F7FD2E4A03C240487F
:101600000078012822D13F48007801281ED13E48A9
:1016100000683E490968884213D33D480078012894
:101620000FD100213B4803F0C5FC01202F49087071
:1016300000203549086002203749087000203149F0
:10164000087031480068401C2F4908603348007812
:10165000012822D12048007801281ED13048006896
:1016600030490968884213D32F48007801280FD1E8
:101670000021174803F09EFC002029490860022041
:1016800014490870012007490870002012490870A9
:1016900023480068401C2249086010BD5801002002
:1016A00024010020A1000020240000209A9999998B
:1016B0009999D93F300000204001002000002440CB
:1016C0000000F03F00E0A5404E0100202C0100206A
:1016D000000C0040290000200A00002079010020B1
:1016E00075010020102C0140F4000020A000002013
:1016F0001C000020922449922449C23F3800002057
:101700000000002009000020F80000201800002040
:1017100001000020000800402800002003000020F5
:10172000FC000020200000200200002000B587B04F
:1017300001211D2002F038FD0121FE4802F049FB85
:101740000121C80302F03DFD4FF40060ADF8180020
:1017500010208DF81B0006A9F74802F069FA4FF433
:10176000A050ADF8180048208DF81B0006A9F248DB
:1017700002F05EFA8020ADF8180010208DF81B00F2
:1017800006A9EE4802F054FA8021EC4802F0FFFA74
:101790003820ADF8180003208DF81A0018208DF8B5
:1017A0001B0006A9E54802F043FA4FF40040ADF8EB
:1017B000180010208DF81B0003208DF81A0006A9D0
:1017C000DF4802F035FA4FF40041DD4802F0DDFA5F
:1017D0000020ADF804004FF48270ADF80600002040
:1017E000ADF80800ADF80A00ADF80C004FF4007039
:1017F000ADF80E002820ADF810000020ADF8120062
:101800000720ADF8140001A9CE4803F0D7FE01214E
:10181000CC4803F078FF07B000BD00B587B00121C8
:10182000082002F0C1FC0121880302F0CAFC4FF439
:101830006040ADF8180018208DF81B0003208DF8CB
:101840001A0006A9BD4802F0F3F94FF48050ADF834
:10185000180010208DF81B0006A9B84802F0E8F91E
:101860004FF48051B54802F090FA4FF40070ADF893
:10187000180010208DF81B0003208DF81A0006A90F
:10188000AD4802F0D5F94FF48070ADF8180048204B
:101890008DF81B0006A9A84802F0CAF90020ADF88F
:1018A00004004FF48270ADF806000020ADF8080087
:1018B000ADF80A00ADF80C004FF40070ADF80E0062
:1018C0002820ADF810000020ADF812000720ADF878
:1018D000140001A99C4803F071FE01219A4803F00D
:1018E00012FF07B000BD30B589B005460C46012196
:1018F000042002F066FC0121082002F055FC402083
:10190000ADF8200018208DF8230003208DF8220068
:1019100008A98A4802F08CF9ADF818500020ADF8FB
:101920001400ADF81A00ADF8160005A9874802F0BA
:10193000E5FF6020ADF804000120ADF80600ADF829
:101940000A400020ADF80C0001A9804803F013F80C
:1019500008217E4803F05EFC01217C4803F02AFC4C
:1019600009B030BD30B589B005460C4601210520CF
:1019700002F01AFC0121082002F023FC0120ADF83E
:10198000200018208DF8230003208DF8220008A9DC
:101990006B4802F04DF9ADF818500020ADF8140076
:1019A000ADF81A00ADF8160005A9694802F0A6FFC7
:1019B0006020ADF804000120ADF80600ADF80A4043
:1019C0000020ADF80C0001A9614802F0D4FF082105
:1019D0005F4803F01FFC01215D4803F0EBFB09B0F9
:1019E00030BD10B586B00446ADF8104001A9564888
:1019F00003F0E4FD0121544803F085FE06B010BD5C
:101A000070B50546002405E0601CC4B2C82C01DD99
:101A1000002070BD02214C4803F0F9FE0028F3D0ED
:101A20002946494803F0A0FE002405E0601CC4B22A
:101A3000C82C01DD0020ECE70121434803F0E7FE5C
:101A40000028F3D0404803F091FEC0B2E1E770B542
:101A50000546002405E0601CC4B2C82C01DD00204E
:101A600070BD0221374803F0D2FE0028F3D029468A
:101A7000344803F079FE002405E0601CC4B2C82C91
:101A800001DD0020ECE701212E4803F0C0FE002814
:101A9000F3D02C4803F06AFEC0B2E1E7F7B5044684
:101AA0004CB99DF80400C0F3C300C0009DF80410B9
:101AB000C90940EAC115012C05D19DF8050041096D
:101AC00061F35F100546022C16D19DF80600C0F3A5
:101AD000800161F39F009DF80610C1F3C00140EA48
:101AE000C1009DF80610C1F3801140EA81109DF8F5
:101AF0000610C90940EAC115032C15D19DF807004D
:101B0000C0F3001000019DF80710C1F3401140EA36
:101B100041109DF80710C1F3801140EA81109DF833
:101B20000710C90940EAC115092C15D19DF8080014
:101B300010E000000002300000100140000C0140E5
:101B400000080140003C0040003800400008004010
:101B5000000C004000F007050020F749086044F041
:101B60008000FFF74DFF07462846FFF749FF06466E
:101B70000A2001F07AFC0120F049C1F8B0010A20E6
:101B800001F073FC0020EC4908602046FFF738FFA5
:101B900006460020FFF734FF06460120E749C1F85A
:101BA000B0010A2001F061FCAE4201D12846FEBD21
:101BB0000020FCE7F7B504464CB99DF80400C0F3DB
:101BC000C300C0009DF80410C90940EAC115012CEA
:101BD00005D19DF80500410961F35F100546022C0F
:101BE00016D19DF80600C0F3800161F39F009DF8B7
:101BF0000610C1F3C00140EAC1009DF80610C1F310
:101C0000801140EA81109DF80610C90940EAC1150B
:101C1000032C15D19DF80700C0F3001000019DF8BA
:101C20000710C1F3401140EA41109DF80710C1F3BD
:101C3000801140EA81109DF80710C90940EAC115DA
:101C4000092C03D19DF8080000F007050020BC49CD
:101C500008600A2001F009FC44F08000FFF7F7FE5D
:101C600007462846FFF7F3FE06460120B549C1F8AE
:101C7000BC010A2001F0F9FB0020B14908602046B0
:101C8000FFF7E5FE06460020FFF7E1FE06460120CD
:101C9000AC49C1F8BC01642001F0E7FBAE4201D1C0
:101CA0002846FEBD0020FCE71CB50320012804D017
:101CB00002280AD0032818D10FE0A348407820F06A
:101CC0001F000D30A049487017E09F48407820F071
:101CD0001F0010309C4948700FE09B48407820F06E
:101CE0001F0016309849487007E09748407820F068
:101CF0001F0010309449487000BF00BF92484078E0
:101D000020F0E000904948700846C07820F020009C
:101D10002030C8700846C07820F08000C87008469F
:101D2000807820F0030088700846807820F0040056
:101D3000001D88700846807820F008000830887000
:101D40000846807820F0400088700846807820F0AF
:101D5000800088707D48007830B101282ED002289C
:101D600056D0032874D17EE00320012804D0022835
:101D70000AD0032818D10FE07348407820F01F00E4
:101D8000401C7149487017E06F48407820F01F00F0
:101D9000C01C6D4948700FE06B48407820F01F0070
:101DA00008306949487007E06748407820F01F0014
:101DB000C01C6549487000BF00BF86E003200128B1
:101DC00004D002280AD0032818D10FE05E484078DA
:101DD00020F01F00801D5C49487017E05A48407889
:101DE00020F01F000A30584948700FE056484078EC
:101DF00020F01F0010305449487007E052484078E6
:101E000020F01F000A305049487000BF00BF5CE05E
:101E10000320012804D002280AD0032819D10FE09A
:101E20004948407820F01F000A304749487018E0C0
:101E30004548407820F01F000E304349487010E0BC
:101E40004148407820F01F0013303F49487008E0B7
:101E500033E03D48407820F01F000E303A4948708A
:101E600000BF00BF31E00320012804D002280AD0BF
:101E7000032818D10FE03448407820F01F000D30BF
:101E80003149487017E03048407820F01F0010308A
:101E90002D4948700FE02C48407820F01F00163084
:101EA0002949487007E02848407820F01F0010308A
:101EB0002549487000BF00BF07E02348407820F064
:101EC0001F0010302049487000BF00BF2048007834
:101ED000082870D2DFE800F0040F1F405060707BCC
:101EE0001948007920F00700C01C1749087101202B
:101EF0001849087081E01448007920F00700124961
:101F000008710846407820F0E000803048700220D8
:101F10001049087071E00C48007920F007000A4968
:101F200008710846407820F0E000603048700420D6
:101F30000849087061E00000B08121420080214220
:101F4000BC012142000021420A01002004000020BF
:101F5000060000206C000020FE48007920F00700F9
:101F6000FC4908710846407820F0E0004030487095
:101F70000820F949087040E0F648007920F0070091
:101F8000F44908710846407820F0E000203048709D
:101F90001020F149087030E0EE48007920F0070089
:101FA000EC4908710846407820F0E0004870202095
:101FB000E949087021E015E0E648007920F00700C3
:101FC000801CE44908714020E349087015E0E148AD
:101FD000007920F00700401CDE4908718020DE49AE
:101FE00008700AE0DB48007920F00700401CD9495E
:101FF00008718020D849087000BF00BFD54801682B
:10200000009100798DF804000020019AFFF7D2FDBD
:10201000D2490870CF480168009100798DF804001A
:102020000120019AFFF7C6FDCD490870C948016833
:10203000009100798DF804000220019AFFF7BAFDA3
:10204000C8490870C3480168009100798DF8040000
:102050000320019AFFF7AEFDC3490870BD4801682F
:10206000009100798DF804000920019AFFF7A2FD84
:10207000BE4908701CBD2DE9FC5F0220012804D078
:1020800002280AD0032818D10FE0B948407820F080
:102090001F000D30B649487017E0B548407820F071
:1020A0001F001030B24948700FE0B148407820F06E
:1020B0001F001630AE49487007E0AD48407820F068
:1020C0001F001030AA49487000BF00BFA848C07860
:1020D00020F020002030A649C8700846C07820F0C3
:1020E0008000C8700846807820F003008870084699
:1020F000807820F00400001D88700846807820F069
:102100000800083088700846807820F04000887009
:102110000846807820F0800088709648007830B1BA
:1021200001282ED0022856D0032874D17EE0022048
:10213000012804D002280AD0032818D10FE08C48C7
:10214000407820F01F00401C8949487017E08848FB
:10215000407820F01F00C01C854948700FE084487B
:10216000407820F01F0008308149487007E080481F
:10217000407820F01F00C01C7D49487000BF00BFA0
:1021800086E00220012804D002280AD0032818D1B2
:102190000FE07748407820F01F00801D7449487098
:1021A00017E07348407820F01F000A3070494870EB
:1021B0000FE06F48407820F01F0010306C494870E5
:1021C00007E06B48407820F01F000A3068494870EB
:1021D00000BF00BF5CE00220012804D002280AD022
:1021E000032819D10FE06248407820F01F000A3020
:1021F0005F49487018E05E48407820F01F000E30BC
:102200005B49487010E05A48407820F01F001330B6
:102210005749487008E033E05548407820F01F00E7
:102220000E305349487000BF00BF31E00220012842
:1022300004D002280AD0032818D10FE04C48407877
:1022400020F01F000D304A49487017E04848407898
:1022500020F01F001030464948700FE04448407895
:1022600020F01F0016304249487007E0404840788F
:1022700020F01F0010303E49487000BF00BF07E04B
:102280003B48407820F01F0010303949487000BFAB
:1022900000BF3948007808287CD2DFE800F004301D
:1022A00084B5E6FDFCFB3248007920F00700C01C35
:1022B0002F4908710120314908703148006803F046
:1022C0000FFE04460D462F48006804F077F880465C
:1022D00042460B4600202C4903F036FC00222B4BD3
:1022E000CDE9000103F04CFE064622462B4603F0E2
:1022F00047FE824603F0B0FD254908609EE11C4878
:10230000007920F007001A4908710846407820F04B
:10231000E0008030487002201849087018480068B2
:1023200003F0DEFD06460F461648006804F046F846
:1023300002460B46CDE900010020134903F004FCDE
:10234000824600224FF0804303F01AFE8046324658
:102350003B4620E00A0100206C0000200001002024
:1023600001010020020100200301002004010020DF
:102370000F01002005000020070000206D00002054
:102380007400002078000020000018400000F03F9A
:102390006800002026E103F0F3FD044603F05CFD35
:1023A000C64908604AE1C648007920F00700C449E0
:1023B00008710846407820F0E00060304870042042
:1023C000C0490870C048006803F08AFD04460D4605
:1023D000BE48006803F0F2FF804642460B460020EC
:1023E000BB4903F0B1FB82460022BA4B03F0C8FDA3
:1023F000064622462B4603F0C3FDCDE9000103F05B
:102400002BFDAE49086019E1AD48007920F00700C6
:10241000AB4908710846407820F0E0004030487031
:102420000820A8490870A848006803F059FD8246B2
:102430008B46A648006803F0C1FF804642460B4623
:102440000020A34903F080FB06460022A24B03F0C4
:1024500097FD044652465B4603F092FDCDE900012C
:1024600003F0FAFC95490860E8E09548007920F00F
:102470000700934908710846407820F0E0002030BA
:10248000487010208F4908708F48006803F028FDBD
:10249000044602E07AE04DE01CE00D468B480068FF
:1024A00003F08CFF804642460B460020884903F02B
:1024B0004BFB06460022894B03F062FD22462B4669
:1024C000CDE9000103F05CFD824603F0C5FC7B49C9
:1024D0000860B3E07A48007920F007007849087175
:1024E0000846407820F0E0004870202075490870C8
:1024F0007548006803F0F4FC04460D467348006814
:1025000003F05CFF064632460B460020704903F09C
:102510001BFB82460022724B03F032FD80462246AE
:102520002B4603F02DFDCDE9000103F095FC634936
:10253000086083E06248007920F00700801C604951
:10254000087140205F4908705F48006803F0C8FCCC
:1025500004460D465D48006803F030FF824652464F
:102560000B4600205A4903F0EFFA804600225D4BEB
:1025700003F006FD064622462B4603F001FDCDE999
:10258000000103F069FC4D49086057E04C480079B0
:1025900020F00700401C4A49087180204949087012
:1025A0004948006803F09CFC04460D464748006813
:1025B00003F004FF804642460B460020444903F0E6
:1025C000C3FA82460022484B03F0DAFC0646224654
:1025D0002B4603F0D5FCCDE9000103F03DFC374963
:1025E00008602BE03648007920F00700401C344991
:1025F00008718020334908703348006803F070FC8C
:1026000004460D463148006803F0D8FE8246524623
:102610000B4600202E4903F097FA06460022324B63
:1026200003F0AEFC804622462B4603F0A9FCCDE920
:10263000000103F011FC2149086000BF00BF2048E1
:102640000168009100798DF804000020019AFFF7DD
:1026500025FA264908701A480168009100798DF81A
:1026600004000120019AFFF719FA21490870144863
:102670000168009100798DF804000220019AFFF7AB
:102680000DFA1C4908700E480168009100798DF818
:1026900004000320019AFFF701FA1749087008485F
:1026A0000168009100798DF804000920019AFFF774
:1026B000F5F912490870BDE8FC9F00006800002091
:1026C0000F0100206D000020740000207800002021
:1026D0000000184000001040000020400000304082
:1026E0000000404000005040000060400501002014
:1026F0000601002007010020080100200901002038
:1027000008B501213C2001F04FFD41F20F10ADF85A
:10271000000048208DF803006946244801F088FA3B
:102720000420ADF8000010208DF8030003208DF880
:10273000020069461E4801F07BFA4FF44070ADF884
:10274000000048208DF8030069461A4801F070FA2D
:102750004FF46040ADF8000028208DF80300694672
:10276000124801F065FA2020ADF8000010208DF825
:10277000030003208DF8020069460C4801F058FA66
:1027800000200D4908600120ADF8000010208DF8F0
:10279000030003208DF802006946064801F048FA5C
:1027A00000200649C1F8800108BD0000001001406A
:1027B00000140140000C014094012242008021429B
:1027C00010B586B004460121052001F0EDFC012181
:1027D000480401F0F6FC0420ADF8140003208DF845
:1027E000160018208DF8170005A9AD4801F020FA51
:1027F0000820ADF8140048208DF8170005A9A84856
:1028000001F016FA26208DF8000001208DF8010055
:1028100000208DF8020001208DF80300684601F0C9
:1028200030FF01940020ADF80800ADF80A00ADF8C3
:102830000C00ADF810000C20ADF80E0001A999486D
:1028400001F059FD012240F22551964801F0EBFDBF
:102850000121944801F0DBFD06B010BD10B540F237
:102860002551904801F0C4FE00287DD040F225514A
:102870008C4801F0B4FE8B4801F03AFE8A498B4A3D
:102880001278885408460078682809D1874800786B
:10289000401C86490870844840788549087002E0E9
:1028A0000020824908708148017881480078401CE6
:1028B00081426BDB7E480078002867D000207B498E
:1028C00008707B480078052812D17748407876490F
:1028D000897808447449C9780844734909790844D7
:1028E000C0B271494979884202D10120714908700A
:1028F0006F480078072818D16B4840786A49897872
:1029000008446949C978084467490979084466490F
:1029100049790844644989790844C0B26249C9794F
:10292000884202D1012063490870614800780D286F
:102930002CD15D4840785C49897808445A49C97867
:10294000084459490979084457494979084456497E
:10295000897908445449C97908445349097A084493
:102960005149497A084400E010E04F49897A084407
:102970004D49C97A08444C49097B0844C0B24A49C8
:10298000497B884202D101204A49087010BD70B5C8
:1029900005460E4600240CE000BF8021414801F0AE
:1029A00011FE0028F9D0295D3E4801F09DFD601C14
:1029B000C4B2B442F0DB00BF40213A4801F002FE4D
:1029C0000028F9D070BD3848007900F0F00080BBD5
:1029D0003548007900F00F0042F210714843324947
:1029E0000979090940F63542514300EB41102E495F
:1029F000497901F00F0101EBC10202EB011100EB7B
:102A0000810029494979090901EB4102C2EBC11151
:102A100000EBC1002449897901F00F0108442249E3
:102A20008979090901EB810100EB410000B22249DB
:102A300008801D4800790121B1EB101F2DD11A48E3
:102A4000007900F00F0042F21071484316494979AD
:102A500001F00F0101EBC10202EB011100EB81005B
:102A600011494979090901EB4102C2EBC11100EB9F
:102A7000C1000D49897901F00F0108440A4989799B
:102A8000090901EB810100EB410000B20A4908800D
:102A900008460088404200B20880002070470000CD
:102AA00000080140004400402A02002014010020D8
:102AB00015010020160100201801002008B5012191
:102AC000082001F071FB4FF44060ADF800001020C9
:102AD0008DF8030002208DF802006946F74801F0E6
:102AE000A7F80120F6490860F649C1F8AC0108BD15
:102AF00010B5F248001D006820F47040EF49091D30
:102B000008600846006840F4405008600120EC4925
:102B1000091D0860EB49C1F8A8010A2000F0A5FCD6
:102B20000020E749091D08600A2000F09EFC0020F3
:102B3000E449C1F8A80110BD10B5E048001D0068C7
:102B400020F47040DD49091D08600846006840F423
:102B5000405008600020DA490860DA49C1F8AC0149
:102B60000A2000F082FC0120D54908600A2000F00C
:102B70007CFC0120D349C1F8AC0110BD10B5002484
:102B8000CE48001D006820F47040CC49091D086043
:102B90000846006840F4004008600120C849091D4B
:102BA00008600A2000F061FC0120C649C1F8A801B4
:102BB0000A2000F05AFC07E0601CC4B2FA2C03DDC6
:102BC000FFF7BAFF012010BDBD487C38006800281F
:102BD000F2D1BB49086000BFF5E710B50020B84945
:102BE0000860B648001D006820F47040B349091D14
:102BF00008600846006840F4405008600020B14971
:102C0000C1F8AC010A2000F030FC0120AC4908609A
:102C10000A2000F02AFC0020AA49C1F8A80110BD32
:102C200010B50020A6490860A448001D006820F4E3
:102C30007040A249091D08600846006840F44050F1
:102C4000086001209F49C1F8AC010A2000F00DFC8A
:102C500001209B4908600A2000F007FC00209949E8
:102C6000C1F8A80110BD70B504469448001D006865
:102C700020F470409149091D08600846006840F43E
:102C80004050086000208E49086000251EE0E009E1
:102C900020B101208A49091D086003E0002088490D
:102CA000091D08606006040E0A2000F0DEFB01200A
:102CB000834908600A2000F0D8FB00208149C1F850
:102CC000A8010A2000F0D1FB681CC5B2082DDEDB8C
:102CD00070BD70B5054600247848001D006820F4DA
:102CE00070407649091D08600846006840F40040BD
:102CF0000860002616E00020714908600A2000F0F4
:102D0000B4FB01206F49C1F8A8016006040E6C48AD
:102D10007C38006808B1601CC4B20A2000F0A5FB32
:102D2000701CC6B2082EE6DB15B9FFF779FF01E08B
:102D3000FFF753FF204670BD10B5FFF7BFFE10BD73
:102D400070B504460026FFF7D3FEA020FFF78BFFE7
:102D5000FFF714FF2012FFF786FFFFF70FFF25464E
:102D6000E11704EB11610912A4EB0121C8B2FFF7CE
:102D70007AFFFFF703FFFFF7BBFEA120FFF773FF0A
:102D8000FFF7FCFE0020FFF7A4FF0646FFF7D4FE86
:102D9000304670BD70B504460E46FFF7A9FEA02070
:102DA000FFF761FFFFF7EAFE2012FFF75CFFFFF776
:102DB000E5FE2546E11704EB11610912A4EB0121A0
:102DC000C8B2FFF750FFFFF7D9FE3046FFF74BFFC1
:102DD000FFF7D4FEFFF7B0FE072000F06AFB70BDDE
:102DE0002DE9F04105460E461746002409E0E200B1
:102DF00026FA02F2D1B22A1990B2FFF7CBFF601C7B
:102E0000C4B2BC42F3DBBDE8F0812DE9F0410746D6
:102E10000C460026002509E036023919491B491ED7
:102E200088B2FFF78DFF0644681CC5B2A542F3DBEC
:102E30003046BDE8F08110B5FF20FFF781FF044662
:102E4000552C01D1002010BD5521FF20FFF7A2FF16
:102E5000FF20FFF775FF0446552C01D10020F2E753
:102E60000120F0E770B506460C46154608E03046EE
:102E7000721C96B2FFF764FF04F8010B681E85B25E
:102E8000002DF4D170BD70B505460C46164606E01F
:102E900021782846FFF77EFF681C85B2641C301E2F
:102EA000A6F101018EB2F3D170BDF0B504460E4615
:102EB0001D4600239DB100210DE00000000C0140E3
:102EC000A881214200802142C80026FA00F004F8BF
:102ED000010B481CC1B29142F6DB0020F0BD002678
:102EE000501E0444002105E01B0214F801793B4404
:102EF000481CC1B29142F7DB1846EFE701460120BA
:102F000070472DE9FC5F4FF080400190019803F07D
:102F100055FA804600225F4B02F016FE064600225C
:102F20005D4B03F02DF8044602F028FD00904FF0B1
:102F30007E505A4908600846006803F03FFA804610
:102F40000022544B02F000FE06460022544B02F0D1
:102F500047FD04460022534B03F012F8824602F06C
:102F60007BFF514908800021504802F023F80020DF
:102F70004F4908604C480088441E04EBD4714A1045
:102F800049490988481E002100F00CF9009803F017
:102F900015FA804600223F4B02F0F2FF064600225F
:102FA0003F4B03F021F9044602F056FF1FFA80FA66
:102FB000012241F61F41504600F0C0F801213D4872
:102FC00001F0F8FF00203C4908700120BDE8FC9F9B
:102FD0002DE9FC5F4FF080400190019803F0EEF97D
:102FE000804600222B4B02F0AFFD064600222A4B02
:102FF00002F0C6FF044602F0C1FC00904FF07E5084
:103000002E4908600846006803F0D8F9804600227F
:10301000204B02F099FD06460022214B02F0E0FC15
:10302000044600221F4B02F0ABFF824602F014FF61
:103030002349088000211D4801F0BCFF00202149E0
:1030400008601F480088441E04EBD4714A101C49D4
:103050000988481E002100F0DCF81B49009803F0A5
:103060001DFB06464FF07E5103F0E4FB054603F0DE
:10307000F5FA84B241F61F412046FEF79BF9012183
:10308000124801F097FF00200B4908700120BDE8AD
:10309000FC9F00000000244000408F403C010020C5
:1030A0000000F03F00E0A5404C010020002C014052
:1030B000540100200008004075010020400100205C
:1030C0004E0100205801002000002041000C00406B
:1030D0007FB506460C4615460121C80201F064F88A
:1030E000BF4801F037FBADF80860ADF804400020A0
:1030F000ADF80A00ADF806008DF80C0001A9B8483B
:1031000001F0FCFB0121B64802F02EFA0122114623
:10311000B34801F06AFF19208DF8000002208DF8F5
:10312000010001208DF802008DF80300684601F0CF
:10313000A8FA2946AA4801F03DFF7FBD7FB50646A3
:103140000C4615460121022001F03BF8A54801F08C
:1031500001FBADF80860ADF804400020ADF80A00AE
:10316000ADF8060001A99F4801F0C8FB01219D4868
:1031700002F0FAF9012211469A4801F036FF1D20AB
:103180008DF8000002208DF801008DF8020001206A
:103190008DF80300684601F074FA2946914801F061
:1031A00009FF7FBD70B588B004460E461546012163
:1031B000042001F006F80020ADF81A00ADF8160062
:1031C000ADF81460A0B2ADF8180005A9864801F06A
:1031D00095FB4FF48070ADF810006020ADF804004E
:1031E0000020ADF80C00ADF808000120ADF8060095
:1031F000A8B2ADF80A0001A97B4801F0BCFB082188
:10320000794802F007F80121774801F0D3FF08B0B0
:1032100070BD70B588B004460E46154601210520E4
:1032200000F0C2FF0121082000F0CBFF0120ADF823
:10323000000018208DF8030003208DF80200694675
:103240006A4800F0F5FC0020ADF81A00ADF8160051
:10325000ADF81460A0B2ADF8180005A9644801F0FB
:103260004DFB4FF48070ADF810006020ADF8040005
:103270000020ADF80C00ADF808000120ADF8060004
:10328000A8B2ADF80A0001A9594801F074FB082161
:10329000574801F0BFFF0121554801F08BFF08B0EE
:1032A00070BD2DE9F05F4F481030008820F001001C
:1032B0004C49103108804F480068401C4D49086057
:1032C0004D48006802287DD14C48007860B94C48D0
:1032D0000068002808DD4B4A4B4B4C4903C902F0FB
:1032E0007FFB4A4A03C20EE04448007858B944487C
:1032F0000068002807DA434A434B444903C902F0F7
:1033000073FF424A03C24FF07E514148006803F008
:1033100081F83F4908600846006803F04FF880468E
:1033200000223C4B02F010FC064600223A4B02F011
:1033300057FB04460022394B02F022FE824602F07F
:103340008BFD3749088001203649086034480088E1
:10335000441E04EBD4714A1031490988481E0021EB
:10336000FFF720FF2348006802F0A3FD0446002277
:10337000284B02F003FF30D800201E4908600021CE
:10338000184801F017FE0021174801F013FE002035
:103390002449086019490870022023490870002058
:1033A0002249087040F27752002140F6EF20FFF7E3
:1033B000F9FE11480068022809D100200E49086072
:1033C000012000E009E01A4908701A49087000213C
:1033D000044801F0EFFDBDE8F09F00BFFBE70000EF
:1033E000002C01400004004000080040000801409B
:1033F000000C00405401002020010020A00000200B
:103400001C000020922449922449C23F3800002029
:103410003C010020000024400000F03F00E0A540F7
:103420004C0100202C010020280000200900002071
:103430007A0100207501002010B56FF0040001F042
:103440006AF92E4800682E49B0FBF1F02D4908704A
:103450000846007800EB4001C1EBC0104FF6FF7149
:1034600001EAC0002849088010BD0146254A1278AB
:103470004A434FF0E0235A6100229A611A461269CA
:1034800042F001021A6100BF4FF0E022106900F023
:1034900001021AB100F48032002AF5D04FF0E02288
:1034A000126922F001024FF0E0231A6100229A61B2
:1034B00070470146144A12884A434FF0E0235A618C
:1034C00000229A611A46126942F001021A6100BF95
:1034D0004FF0E022106900F001021AB100F48032CE
:1034E000002AF5D04FF0E022126922F001024FF0DD
:1034F000E0231A6100229A6170470000E00000207A
:1035000000127A00600100206201002000BF7047B5
:1035100000BFF94A128802F04002002AF9D0C2B274
:10352000F54B1B1D1A80704710B586B0044601216B
:1035300044F2040000F038FE4FF40070ADF81400BF
:1035400003208DF8160018208DF8170005A9EB4808
:1035500000F06EFB4FF48060ADF8140004208DF88D
:10356000170005A9E54800F063FB25208DF8000051
:1035700003208DF801008DF8020001208DF8030072
:10358000684601F07EF801940020ADF80800ADF81F
:103590000A00ADF80C00ADF810000C20ADF80E00DC
:1035A00001A9D54800F0A7FE012240F22551D248DA
:1035B00000F039FF0121D04800F029FF06B010BD0E
:1035C00010B540F22551CC4801F012F8002842D045
:1035D0002021C94800F0F6FF012804D1C64800F0B8
:1035E00087FFC7490870C6480078C0280AD1C54877
:1035F000007818B1C3480078C02803D10020C24920
:10360000087024E0BE480078C0280BD0BC48007881
:10361000BE49BD4A12788854BB480078401CBA495C
:10362000087014E0B6480078C02810D1B648007879
:1036300068B1B5480078012809D0B3480078B4498A
:1036400008700020B04908700120B2490870AC48E9
:103650000078AC49087010BD70B505460E460024D0
:1036600012E000BF4021A44800F0ACFF0128F9D1CE
:10367000295DA14800F038FF00BF40219E4800F0BE
:10368000A1FF0128F9D1641CB442EAD370BD30B562
:1036900002460B4600201AE0802115E000F40044A9
:1036A0003CB14FF6FF7404EA400041F2210460404F
:1036B00003E04FF6FF7404EA400014780C4014B1A4
:1036C00041F22104604049100029E7D1521C1C1E20
:1036D000A3F10105EBB2DFD130BD2DE9F05F8246E9
:1036E0008B469146002404E08B48005D8B490855C9
:1036F000641C4C45F8DB8A48B0F9000002F0D9FBA5
:10370000074688480CC8384602F06EFD0546864AD2
:10371000864B02F033FD17D88548007800283BD14E
:103720000022844B7F4903C902F028FD08D2022001
:1037300081490860814908700320814908702BE0A5
:1037400000207E49087027E07548B0F9000002F0BB
:10375000B0FB074673480CC8384602F045FD0546E5
:10376000714A784B02F0D0FB16D2714800780128DC
:1037700012D10022744B6B4903C902F0C5FB08D279
:1037800002206D4908606D49087003206C4908707B
:1037900002E00020694908706C48B0F9000002F0AE
:1037A00088FB07466A480CC8384602F01DFD0546EE
:1037B0005D4A5E4B02F0E2FC18D8664800780028AB
:1037C0003CD100225B4B624903C902F09DFB09D248
:1037D00002206149087004205949087002205F499D
:1037E00008602BE000205C49087027E05748B0F9DA
:1037F000000002F05EFB054655480CC8284602F062
:10380000F3FC0746484A4F4B02F07EFB16D2514864
:103810000078012812D10022464B4D4903C902F01D
:10382000ADFC08D202204D4908604B4908700420C5
:103830004349087002E00020474908700020BDE8B5
:10384000F09F70B500260025002E4DD1002429E000
:103850002E48005DDB280CD12C49601C085CDC285C
:1038600007D1601CC4B2C0202B494855681CC5B2A2
:1038700016E02648005DDB280CD12449601C085C5A
:10388000DD2807D1601CC4B2DB2023494855681CE1
:10389000C5B205E01D48005D1F494855681CC5B20A
:1038A000601CC4B21A4800788442D1DBA81EC1B2A1
:1038B0001948FFF7ECFE00B229490880681E164936
:1038C000095CA81E144A105C41EA002000B2254998
:1038D00008802348B0F90000B1F90010884202D1F5
:1038E000701CC6B200E00026012E7CD100260748DD
:1038F0000078062878D237E00038014000080140FF
:103900006C0100206D0100206E0100203E020020AD
:103910006F010020700100205C0200209401002053
:103920007E01002038000020FCA9F1D24D62603FEA
:103930002800002000001440200100207A0100200F
:10394000750100204D6260BF008040407C01002076
:1039500030000020290000207901002024010020EF
:10396000680100206A010020DFE800F09103070BE6
:10397000218D0120574908708AE0012056490870BE
:1039800086E00120554908705548C078012801D1CA
:10399000544908705248C07840B95348006828B963
:1039A0005248006810B901205149087070E0514830
:1039B0000078012866D150480078012862D14F492B
:1039C00008704F48C0794E49897940EA012000B219
:1039D0004C4908804A48007A4B4908704848407969
:1039E0004749097901E054E051E040EA012000B282
:1039F000464908800846B0F900004549884209DB7D
:103A00004248B0F900004942884203DC01204149A4
:103A1000087002E000203F4908703A48B0F9000001
:103A200010F5967F09DB3748B0F90000B0F5FA7F52
:103A300003DC01203849087002E000203649087094
:103A40003448007801280DD133480078012809D185
:103A50002A462C48B0F900102C48B0F90000FFF7B6
:103A60003CFE0FE02B48007810B12B48007848B995
:103A70002A48B0F90000234908802948B0F900001D
:103A80002249088004E001202649087000E000BFB8
:103A900000BF70BD70B505460E4600240CE000BFA7
:103AA0008021214800F08EFD0028F9D0295D1E48B4
:103AB00000F01AFD601CC4B2B442F0DB00BF40212C
:103AC000194800F07FFD0028F9D000201749086050
:103AD00070BD000071010020720100207301002000
:103AE0003E0200207401002024010020200100205B
:103AF0007801002000000020030000207501002054
:103B00005C0200207E010020770100207C01002063
:103B1000B0B9FFFF790100207A0100200C000020DD
:103B20000E00002076010020003801409001214263
:103B30000948804709480047FEE7FEE7FEE7FEE741
:103B4000FEE7FEE7FEE7FEE7FEE7FEE7044805497D
:103B5000054A064B70470000B31200083101000807
:103B6000E0020020E0080020E0040020E004002043
:103B700010B50446CC48844208D10121042000F04D
:103B80002DFB0021042000F029FB46E0C7488442B9
:103B900008D10121082000F021FB0021082000F0BD
:103BA0001DFB3AE0C248844208D10121102000F0F8
:103BB00015FB0021102000F011FB2EE0BD488442CF
:103BC00008D10121202000F009FB0021202000F075
:103BD00005FB22E0B848844208D10121402000F0D2
:103BE000FDFA0021402000F0F9FA16E0B3488442C3
:103BF00008D10121802000F0F1FA0021802000F09E
:103C0000EDFA0AE0AE48844207D10121801500F0A8
:103C1000E5FA0021A01500F0E1FA10BD10B5012170
:103C2000084600F0DBFA0021012000F0D7FA10BDB1
:103C30002DE9F04102460025002600200023002443
:103C4000002791F803C00CF00F0591F803C00CF0A9
:103C5000100CBCF1000F03D091F802C04CEA05052E
:103C600091F800C0BCF1000F31D0146800202BE0A7
:103C70004FF0010C0CFA00F3B1F800C00CEA030697
:103C80009E4220D183004FF00F0C0CFA03F7BC4387
:103C900005FA03FC4CEA040491F803C0BCF1280FB8
:103CA00006D14FF0010C0CFA00FCC2F814C00AE077
:103CB00091F803C0BCF1480F05D14FF0010C0CFA8C
:103CC00000FCC2F810C0401C0828D1D31460B1F821
:103CD00000C0BCF1FF0F34DD546800202EE000F17D
:103CE000080C4FF0010808FA0CF3B1F800C00CEA18
:103CF00003069E4221D183004FF00F0C0CFA03F70C
:103D0000BC4305FA03FC4CEA040491F803C0BCF17F
:103D1000280F05D100F1080C08FA0CF8C2F814803D
:103D200091F803C0BCF1480F07D100F1080C4FF027
:103D3000010808FA0CF8C2F81080401C0828CED3FD
:103D40005460BDE8F0814FF6FF710180022181705F
:103D50000421C17070470246002093680B400BB1EC
:103D6000012000E0002070470146886880B270475B
:103D700002460020D3680B400BB1012000E0002078
:103D800070470146C86880B2704701617047416161
:103D900070470AB1016100E041617047C16070473E
:103DA0004FF480320A438261816182618269826953
:103DB000704702460020434B18684FF68073184046
:103DC00040EA021008433F4B186070473E49C86103
:103DD0007047F0B50A46002300240021002500F0BA
:103DE0000046B6F1004F02D1364EF16901E0354E82
:103DF0007168C0F3034583B200F44016B6F5401F66
:103E000008D121F070612F4E766826F070662D4F34
:103E10007E6012E000F48016B6F5801F06D10326FE
:103E200006FA05F4A14341F0706106E0460D360143
:103E300003FA06F6B14341F0706122B1460D360136
:103E400003FA06F6314300F00046B6F1004F02D106
:103E50001C4EF16101E01B4E7160F0BD30B50022D7
:103E60008B071C0F0F2303FA04F2164B08338C1038
:103E700053F824309343134C08348D1044F8253004
:103E800023468C1053F824308C07240F00FA04F4D6
:103E900023430C4C08348D1044F8253030BD0A49BA
:103EA000DC3108607047000000080140000C014050
:103EB000001001400014014000180140001C0140A6
:103EC000002001400000014000002042DF4800685F
:103ED00040F00100DD49086008464068DC490840C0
:103EE000DA49486008460068DA490840D74908605E
:103EF0000846006820F4802008600846406820F4E6
:103F0000FE0048604FF41F0088607047CF49096881
:103F100021F48031CD4A11601146096821F48021D5
:103F20001160B0F5803F03D0B0F5802F0ED106E0D0
:103F3000C649096841F48031C44A116007E0C349A9
:103F4000096841F4A021C14A116000E000BF00BF30
:103F5000704710B501460022002300204A11012AB3
:103F600002D1BA4C236806E0022A02D1B74C236A78
:103F700001E0B64C636A01F01F02012494401C402A
:103F80000CB1012000E0002010BD38B500200090E9
:103F90000024002500BF3120FFF7DBFF0546009815
:103FA000401C00900098B0F5A06F01D0002DF2D019
:103FB0003120FFF7CEFF08B1012400E000242046A5
:103FC00038BD01460020A14A106820F0F80040EA00
:103FD000C10010607047A049086070470246002089
:103FE0009A4B586820F47C1042EA01031843974B1F
:103FF0005860704798490866704701460020934A08
:10400000506820F003000843506070478F484068B4
:1040100000F00C007047014600208C4A506820F0E8
:10402000F00008435060704701460020874A5068FE
:1040300020F4E06008435060704701460020834A46
:10404000506820F4605040EAC1005060704729B1C8
:104050007E4A527A02437D4B5A7204E07B4A527A7E
:1040600082437A4B5A7270477B49D8310860704757
:1040700001460020754A506820F4404008435060D3
:1040800070470021714A20321170704A82F8201066
:10409000012802D004280AD104E001216B4A203211
:1040A000117005E00521694A2032117000E000BF5F
:1040B00000BF70476949086070476449096A014355
:1040C000624A11627047654944390860704730B5EB
:1040D00000210022002400235C4D6D6805F00C01D6
:1040E00021B1042905D0082923D105E05C4D0560E4
:1040F00022E05B4D05601FE0544D6D6805F47012C1
:10410000524D6D6805F48034022505EB92421CB9CE
:10411000544D554305600BE04C4D6D6805F400357A
:104120001DB1504D5543056002E04D4D55430560AE
:1041300002E04B4D056000BF00BF444D6D6805F0C7
:10414000F0010909484D6B5C0568DD4045603F4D55
:104150006D6805F4E061090A434D6B5C4568DD401C
:1041600085603A4D6D6805F46051C90A3E4D6B5C3F
:104170004568DD40C560354D6D6805F44041890BEB
:104180003A4D6B5CC568B5FBF3F5056130BD29B1EF
:104190002E4A526902432D4B5A6104E02B4A526960
:1041A00082432A4B5A61704729B1284A92690243D7
:1041B000264B9A6104E0254A92698243234B9A6117
:1041C000704729B1214AD2690243204BDA6104E0E9
:1041D0001E4AD26982431D4BDA61704729B11B4ADE
:1041E000D2680243194BDA6004E0184AD26882436D
:1041F000164BDA60704729B1144A12690243134B17
:104200001A6104E0114A12698243104B1A61704727
:1042100012494039086070470F49C86470470B491C
:10422000C87170470948406A40F080700749486289
:10423000704701460020054A92680A400AB10120F1
:1042400000E000207047014988727047001002406A
:104250000000FFF8FFFFF6FE0000424280044242E9
:1042600000127A0000093D0080010020900100202A
:1042700010B50446FB48844209D101218803FFF7A9
:10428000ADFF00214FF48040FFF7A8FF32E0F64871
:10429000844209D101214804FFF7ADFF00214FF40A
:1042A0000030FFF7A8FF25E0F048844209D1012142
:1042B0008804FFF7A0FF00214FF48020FFF79BFF49
:1042C00018E0EB48844209D10121C804FFF793FFAD
:1042D00000214FF40020FFF78EFF0BE0E5488442F9
:1042E00008D101210805FFF786FF00214FF4801057
:1042F000FFF781FF10BD2DE9F04786B005460E4659
:104300000024A24600BFA1460027B08900B100BF2B
:104310002F462C8A4CF6FF700440F08804432C8210
:10432000AC894EF6F3100440B08831890843718996
:1043300008430443AC81AC8A4FF6FF400440B08987
:104340000443AC8201A8FFF7C2FEC648874202D1EF
:10435000DDF810A001E0DDF80CA0A88900F4004011
:1043600040B10AEBCA0000EB0A1031684900B0FB0B
:10437000F1F807E00AEBCA0000EB0A103168890087
:10438000B0FBF1F86420B8FBF0F0040120096421CF
:1043900001FB1089A88900F4004040B1322000EBF5
:1043A000C900B0FBF1F000F00700044308E0322040
:1043B00000EB09106421B0FBF1F000F00F000443A2
:1043C0002C8106B0BDE8F0874FF416510160002142
:1043D0008180C18001810C21418100218181704750
:1043E00010B502460020108A4FF2FF0318400B88D8
:1043F0004C8823438C882343CC8823431843108262
:1044000010BD0021018041808180C180704721B1B1
:10441000828942F40052828104E082894DF6FF7362
:104420001A4082817047F0B503460024002600251B
:10443000002040F66A17B94200D100BF1846C1F308
:10444000421401F01F06012707FA06F5012C01D1DD
:104450000C3004E0022C01D1103000E014301AB10D
:1044600007682F43076002E00768AF430760F0BDAD
:104470001AB1838A0B43838202E0838A8B4383824F
:104480007047028A4FF6F0731A400282028A0A438A
:104490000282704782894FF2FF731A4082818289BB
:1044A0000A438281704721B1828942F002028281EF
:1044B00004E082894FF6FD731A4082817047028AB8
:1044C0004FF6DF731A400282028A0A430282704763
:1044D00021B1028A42F48042028204E0028A4BF651
:1044E000FF731A4002827047C1F30802828070474E
:1044F00001468888C0F308007047818941F00101B6
:1045000081817047028BD2B20283028B42EA012280
:1045100002837047028B02F47F420283028B0A43BC
:104520000283704721B1828A42F02002828204E035
:10453000828A4FF6DF731A408282704721B1828AE5
:1045400042F01002828204E0828A4FF6EF731A4032
:104550008282704721B1828A42F00802828204E09E
:10456000828A4FF6F7731A408282704721B182899E
:1045700042F40042828103E08289C2F30E0282810A
:10458000704721B1828A42F40062828204E0828A0A
:104590004FF2FF731A4082827047828A4FF6FB7394
:1045A0001A408282828A0A438282704721B1828ABB
:1045B00042F00202828204E0828A4FF6FD731A40C2
:1045C0008282704702460020B1F5007F00D100BF13
:1045D00013880B400BB1012000E00020704701F46C
:1045E0000072B2F5007F00D100BFCA43028070475D
:1045F00070B50246002400230025002040F66A160C
:10460000B14200D100BFC1F3421501F01F030126E2
:1046100006FA03F3012D02D19689334006E0022DFC
:1046200002D1168A334001E0968A33400C120126EB
:1046300006FA04F41688344013B10CB1012000E0EE
:10464000002070BD10B50022002340F66A14A1427C
:1046500000D100BF0A1201249440A3B2DC430480BD
:1046600010BD0000003801400044004000480040F8
:10467000004C00400050004031490143314A116074
:10468000704770B5002100230F22C47804B32D4C6D
:10469000246804F4E064C4F5E064210AC1F1040371
:1046A000CA40447804FA03F1847814402143090194
:1046B000254C0678A155047804F01F050124AC4070
:1046C00005786D11AD0005F1E025C5F8004109E060
:1046D000047804F01F050124AC401C4D06787611C7
:1046E00045F8264070BD1A4A0A400243154B1B1F6D
:1046F0001A60704739B1134A121D12680243114BF8
:104700001B1D1A6006E00F4A121D126882430D4BF2
:104710001B1D1A607047042808D14FF0E021096979
:1047200041F004014FF0E022116107E04FF0E02179
:10473000096921F004014FF0E02211617047000087
:104740000000FA050CED00E000E400E080E100E08C
:1047500080FFFF1F10B50446FE48844208D10121A6
:10476000C014FFF73BFD0021E014FFF737FDC4E064
:10477000B4F1804F08D101210846FFF73CFD00212C
:104780000120FFF738FDB8E0F348844208D1012149
:104790000220FFF730FD00210220FFF72CFDACE0E6
:1047A000EE48844208D101210420FFF724FD0021B6
:1047B0000420FFF720FDA0E0E948844208D1012150
:1047C0000820FFF718FD00210820FFF714FD94E0F2
:1047D000E448844208D101211020FFF70CFD00219C
:1047E0001020FFF708FD88E0DF48844208D101214E
:1047F0002020FFF700FD00212020FFF7FCFC7CE0DB
:10480000DA48844208D101214014FFF7E7FC002177
:104810006014FFF7E3FC70E0D548844209D1012120
:10482000C804FFF7DBFC00214FF40020FFF7D6FCA3
:1048300063E0D048844209D101210805FFF7CEFC8E
:1048400000214FF48010FFF7C9FC56E0CA488442AB
:1048500009D101214805FFF7C1FC00214FF40010E8
:10486000FFF7BCFC49E0C548844208D10121402043
:10487000FFF7C1FC00214020FFF7BDFC3DE0C04830
:10488000844208D101218020FFF7B5FC002180205F
:10489000FFF7B1FC31E0BB48844208D1012180150B
:1048A000FFF7A9FC0021A015FFF7A5FC25E0B648FD
:1048B000844209D101210804FFF790FC00214FF444
:1048C0008030FFF78BFC18E0B048844209D1012109
:1048D0004804FFF783FC00214FF40030FFF77EFC13
:1048E0000BE0AB48844208D101218804FFF776FC35
:1048F00000214FF48020FFF771FC10BD00220288D8
:10490000944B98420ED0994B98420BD0B0F1804F07
:1049100008D0914B984205D0904B984202D0904BD2
:10492000984204D14FF68F731A404B881A438D4B2F
:10493000984207D08C4B984204D04FF6FF431A4060
:10494000CB881A4302808B8883850B880385814B33
:1049500098420BD0854B984208D08B4B984205D09B
:104960008A4B984202D08A4B984201D10B7A038637
:1049700001238382704770B5002400220023058C38
:104980004FF6FE7635400584028C8388048B4FF603
:104990008F752C40B51E2C400D882C43751E2A4067
:1049A0000D892A434D882A436A4DA8420BD06F4D8A
:1049B000A84208D0744DA84205D0744DA84202D038
:1049C000734DA84213D14FF6F7752A404D892A43FB
:1049D0004FF6FB752A408D882A434FF6FF652B4022
:1049E0004FF6FF552B408D892B43CD892B43838078
:1049F0000483CD888586028470BD70B500240022B2
:104A00000023058C4FF6EF7635400584028C8388B1
:104A1000048B48F6FF752C404FF6FF452C400D885F
:104A20004FF6FF7606EA05252C434FF6DF752A4040
:104A30000D8906EA05152A434D8806EA05152A431D
:104A4000444DA84202D0494DA8421DD14FF67F7572
:104A50002A404D894FF6FF7606EA05152A434FF6A0
:104A6000BF752A408D8806EA05152A434FF6FF35A3
:104A70002B404FF2FF752B408D8906EA85052B43AD
:104A8000CD8906EA85052B4383800483CD8805877D
:104A9000028470BD70B5002400220023058C4FF6FF
:104AA000FF6635400584028C8388848B4FF68F75B2
:104AB0002C404FF6FC752C400D882C434FF6FF55CB
:104AC0002A400D894FF6FF7606EA05252A434D88D0
:104AD00006EA05252A431F4DA84202D0234DA842CD
:104AE0001DD14FF2FF752A404D894FF6FF7606EA39
:104AF00005252A434FF6FF352A408D8806EA05250D
:104B00002A434EF6FF752B404DF6FF752B408D89DD
:104B100006EA05152B43CD8906EA05152B4383804C
:104B20008483CD888587028470BD70B50022002300
:104B30000024058C4EF6FF7635400584038C84886E
:104B4000828B48F6FF752A404FF6FF452A400D88B4
:104B500020E00000002C014000040040000800405C
:104B6000000C0040001000400014004000340140E0
:104B7000004C01400050014000540140001800402A
:104B8000001C004000200040004001400044014063
:104B9000004801404FF6FF7606EA05252A434DF608
:104BA000FF752B400D8906EA05352B434D8806EA33
:104BB00005352B43FA4DA84202D0FA4DA84208D140
:104BC0004BF6FF752C408D894FF6FF7606EA85156A
:104BD0002C4384808283CD88A0F84050038470BD2C
:104BE000828B4FF2FF331A408283828B4FF6FF7322
:104BF00003EA01231A4382837047F0B50C46154639
:104C0000002200210026078C4EF6FF7C07EA0C07E5
:104C10000784828B018C4FF6FF7707EA043640F653
:104C2000FF473A404FF6FF7707EA05273A434FF62A
:104C3000FF7707EA03373A43D94FB8420ED0D94F2E
:104C4000B8420BD0B0F1804F08D0D74FB84205D052
:104C5000D64FB84202D0D64FB84206D14DF6FF77B4
:104C6000394046F48057394305E047F6FF5739404D
:104C700044F48057394382830184F0BD828B4FF620
:104C8000F3731A408283828B0A4382837047F0B5A4
:104C90000C461546002200210026078C4FF6FF6CBB
:104CA00007EA0C070784828B018C4FF6FF7707EA2F
:104CB00004264FF60C773A404FF6FF7707EA0317C2
:104CC0002F433A43B64FB8420ED0B64FB8420BD03E
:104CD000B0F1804F08D0B44FB84205D0B34FB842BE
:104CE00002D0B34FB84206D14FF6FF57394046F4D1
:104CF0008077394305E04FF2FF57394044F480771D
:104D0000394382830184F0BD028B4FF2FF331A4096
:104D10000283028B4FF6FF7303EA01231A430283D7
:104D20007047F0B50C461546002200210026078C7E
:104D30004FF6EF7C07EA0C070784028B018C4FF6D5
:104D4000FF7707EA041640F6FF473A404FF6FF7731
:104D500007EA03373A434FF6FF7707EA05273A4356
:104D60008F4FB8420ED08F4FB8420BD0B0F1804F6A
:104D700008D08D4FB84205D08C4FB84202D08C4F2E
:104D8000B84206D14FF6DF77394046F01007394375
:104D900005E04FF65F77394044F01007394302834E
:104DA0000184F0BD028B4FF6F3731A400283028B2D
:104DB0000A4302837047F0B50C46154600220021D5
:104DC000068C4FF6FE773E400684028B018C4FF630
:104DD0000C7632407E1C06EA03162E433243704E98
:104DE000B0420ED06F4EB0420BD0B0F1804F08D021
:104DF0006D4EB04205D06D4EB04202D06C4EB04206
:104E000006D14FF6FD76314044F00106314305E00E
:104E10004FF6F576314044F00106314302830184B8
:104E2000F0BD70B505460C465D4885420ED05D4824
:104E300085420BD0B5F1804F08D05B48854205D044
:104E40005A48854202D05A48854200D100E000BF4E
:104E5000208850B92389A28861882846FFF7ABFFD4
:104E6000E1882846FFF79EFF25E0208804280AD124
:104E70002389A28861882846FFF753FFE1882846E6
:104E8000FFF742FF17E0208808280AD12389A2886B
:104E900061882846FFF7FBFEE1882846FFF7EEFE13
:104EA00009E02389A28861882846FFF7A6FEE188E9
:104EB0002846FFF795FE70BD2DE9F04105460C46EA
:104EC00000260127608808B9022600E00026A08895
:104ED000012801D1022700E001272088A0B92389F9
:104EE000A28861882846FFF766FFE1882846FFF719
:104EF00059FF23893A4631462846FFF712FFE188D9
:104F00002846FFF701FF13E02389A288618828461D
:104F1000FFF707FFE1882846FFF7F6FE23893A46A8
:104F200031462846FFF747FFE1882846FFF73AFF5A
:104F3000BDE8F0810A884B881A438B881A43CB88D6
:104F40001A430B891A434B891A438B891A43A0F8D9
:104F5000442070474FF6FF71818000210180C1809D
:104F60004180017270470021018041808180C180B1
:104F7000018141818181C18170470021018041808F
:104F8000012181800021C1800181704700210180C1
:104F900041808180C1800181418181817047000011
:104FA000002C014000340140000400400008004093
:104FB000000C004021B1028842F00102028004E0AE
:104FC00002884FF6FE731A400280704731B1B0F884
:104FD000442042F40042A0F8442005E0B0F8442008
:104FE000C2F30E02A0F8442070471AB183890B4324
:104FF000838102E083898B4383817047818270477C
:1050000041EA0203A0F8483070471AB183890B4384
:10501000838102E083898B438381704701894FF646
:10502000F8721140018170470A46002101894FF64C
:105030008F73194011430181704730B504460D4606
:1050400029462046FFF7F0FF208940F00700208125
:1050500030BD2DE9F04104460D4616461F46602D31
:1050600006D13B46012231462046FFF75AFE05E0B5
:105070003B46012231462046FFF79DFE2946204649
:10508000FFF7D2FF208940F007002081BDE8F081C2
:1050900030B50C4600210189C9B24FF6FF7505EA0B
:1050A0000325154325432943018130BD2DE9F041F6
:1050B00005460E4617469846002443463A46314672
:1050C0002846FFF7E5FF2C894FF6F870044044F0BE
:1050D00007044FF68F70044044F070042C81BDE843
:1050E000F081F0B504460D4616461F463B46324653
:1050F00029462046FFF7CCFF208940F480402081DC
:10510000F0BD0185828270470A46002101884FF672
:105110008F731940114301807047F0B50C46154656
:105120001E460021002200230189028B038C4FF6CA
:10513000F877394021434FF6FC473A4040F20117D7
:105140003A434FF6DD773B404FF6FF7707EA061705
:105150002F433B43018102830384F0BD0A460021B3
:10516000018B4FF68F7319401143018370470A4634
:105170000021018B48F6FF7319404FF6FF7303EAD5
:1051800002231943018370470A460021818B4FF6A1
:105190008F7319401143818370470A460021818B28
:1051A00048F6FF7319404FF6FF7303EA02231943D1
:1051B0008183704721B1028842F08002028004E0BE
:1051C00002884FF67F731A400280704721B18288AF
:1051D00042F00402828004E082884FF6FB731A409A
:1051E0008280704721B1828842F00802828004E008
:1051F00082884FF6F7731A408280704721B1828807
:1052000042F00102828004E082884FF6FE731A4069
:10521000828070470A460021018B4FF6F7731940D0
:105220001143018370470A460021018B4FF2FF733F
:1052300019404FF6FF7303EA0223194301837047B5
:105240000A460021818B4FF6F77319401143818381
:1052500070470A460021818B4FF2FF7319404FF6C9
:10526000FF7303EA02231943818370470A46002132
:10527000018B4FF6FB7319401143018370470A46B7
:105280000021018B4FF6FF3319404FF6FF7303EAFD
:1052900002231943018370470A460021818B4FF690
:1052A000FB7319401143818370470A460021818BAB
:1052B0004FF6FF3319404FF6FF7303EA02231943F9
:1052C000818370470A460021018B4FF67F73194096
:1052D0001143018370470A460021018BC1F30E017F
:1052E0004FF6FF7303EA02231943018370470A460E
:1052F0000021818B4FF67F731940114381837047E2
:105300000A460021818BC1F30E014FF6FF7303EAB9
:1053100002231943818370470A460021018C4FF60E
:10532000FD7319401143018470470A460021018C26
:105330004FF6F77319401143018470470A46002164
:10534000018C4FF6DF7319404FF6FF7303EA021327
:105350001943018470470A460021018C4FF67F7380
:1053600019404FF6FF7303EA021319430184704793
:105370000A460021018C4FF6FF5319404FF6FF7388
:1053800003EA02231943018470470A460021018C75
:105390004FF2FF7319404FF6FF7303EA02231943DC
:1053A000018470470A460021018C4DF6FF731940B5
:1053B0004FF6FF7303EA023319430184704730B597
:1053C000002301248C40A3B2048C9C430484048CED
:1053D00002FA01F5ADB22C43048430BD30B5002390
:1053E00004248C40A3B2048C9C430484048C02FAF1
:1053F00001F5ADB22C43048430BD70B503460020E6
:1054000000241846183001258D40ACB21D8CA543F0
:105410001D8409B1082909D100EB6100056825F058
:10542000700505600568154305600EE00D1FC5F3A6
:105430004E052844056825F4E045056005684FF6EB
:10544000FF7606EA02263543056070BD21B1028869
:1054500042F00202028004E002884FF6FD731A4017
:105460000280704721B1028842F00402028004E009
:1054700002884FF6FB731A400280704721B1828880
:1054800042F08002828004E082884FF67F731A40E7
:105490008280704702884FF6F7731A4002800288B4
:1054A0000A430280704782884FF68F731A408280C9
:1054B00082880A438280704702894FF6F8731A4047
:1054C000028102890A430281704702894FF67F7385
:1054D0001A40028102890A43028170478184704721
:1054E0008185704781867047018770478187704743
:1054F000A0F84010704702884FF6FF431A40028020
:1055000002880A43028070470146888E7047014630
:10551000088F70470146888F70470146B1F84000F8
:1055200070470146888C70470146088D70470246D7
:105530000020138A0B400BB1012000E000207047CF
:10554000CA430282704730B502460020002300247F
:10555000158A05EA0103958905EA010413B10CB126
:10556000012000E0002030BDCA43028270470000E5
:1055700010B50446BE48844208D101218014FEF7CC
:105580002DFE0021A014FEF729FE16E0B948844242
:1055900008D101210014FEF72EFE00212014FEF791
:1055A0002AFE0AE0B448844207D10121C013FEF765
:1055B00022FE0021E013FEF71EFE10BD10B50022F2
:1055C000028802F441520B884C8823438C88234381
:1055D000CC8823430C8923434C8923438C89234360
:1055E000CC8923431A430280838B4FF2FF742340FC
:1055F00083830B8A038210BD2DE9F04F85B00546E9
:105600000C464FF0000902274FF000084FF0010B45
:105610000026B246A88B4FF240010840A883022022
:105620002884B5F81C90A068022801D100BF38E09A
:10563000A08810B94FF0010B01E04FF0020B8D482C
:10564000854200D100E000BF6846FEF740FDDDF86E
:1056500000A0E088B0F5007F0AD14FEA1A2000EBE5
:1056600080004000A168B0FBF1F0401D86B20BE065
:105670004FEA4B10BAFBF0F000EB80004000A1684D
:10568000B0FBF1F0401D86B20A20B6FBF0F606F042
:105690000108A6EB0800C0F34F074FF6FF7000EAC1
:1056A0000828022F01DBFF2F02DD02274FF0000840
:1056B000E08840EA080038432884A088A18908438C
:1056C000618808432188084340F4006040EA0909E2
:1056D000A5F81C9005B0BDE8F08F00210180418045
:1056E0008180C180018141818181C1810721018245
:1056F00070470021018041808180C180022181604A
:1057000000218181704721B1028842F0400202806D
:1057100004E002884FF6BF731A400280704721B13F
:10572000828B42F48062828304E0828B4FF6FF33E7
:105730001A408283704730B5002400230C110125E4
:10574000A540ABB21AB185881D43858002E08588EB
:105750009D43858030BD1AB183880B43838002E06E
:1057600083888B4383807047818170470146888995
:1057700070474FF6FF62914204D0028842F4807273
:10578000028004E002884FF6FF631A4002807047EF
:1057900021B1828842F00402828004E082884FF6C0
:1057A000FB731A408280704702884FF2FF731A40E1
:1057B000028002880A4302807047018841F48051C8
:1057C0000180704721B1028842F40052028004E057
:1057D00002884DF6FF731A4002807047024600208F
:1057E000012901D0108B00E0908A70470146088A99
:1057F0007047B1F5804F04D1028842F480420280A4
:1058000004E002884BF6FF731A400280704702469C
:10581000002013890B400BB1012000E000207047ED
:10582000CA4302817047F0B50246002000240023DD
:10583000002501F00F070126BE40B4B20B1101266E
:105840009E40B3B2968806EA03051689264016B133
:105850000DB1012000E00020F0BD10B5002201F0E4
:105860000F040123A3409AB2D343038110BD00006B
:105870000030014000380040003C004070474FF0CD
:1058800000020429C0F0128010F0030C00F01F8009
:10589000CCF1040CBCF1020F18BF00F8012BA8BF1B
:1058A00020F8022BA1EB0C0100F011B85FEAC17CDB
:1058B00024BF00F8012B00F8012B48BF00F8012B92
:1058C000704770477047704770474FF0000200B54F
:1058D000134694469646203922BFA0E80C50A0E813
:1058E0000C50B1F12001BFF4F7AF090728BFA0E8C1
:1058F0000C5048BF0CC05DF804EB890028BF40F88D
:10590000042B08BF704748BF20F8022B11F0804FCE
:1059100018BF00F8012B7047754600F02BF8AE4613
:1059200005006946534620F00700854618B020B5AB
:10593000FEF70CF9BDE820404FF000064FF00007DD
:105940004FF000084FF0000B21F00701AC46ACE827
:10595000C009ACE8C009ACE8C009ACE8C0098D4694
:10596000704710B50446AFF300802046BDE81040F4
:10597000FAF745BC004870477C02002021F0004245
:10598000A2F16052B2F5801F01F0004328BFD2F1AE
:105990007F6C0BD95FEA001C43EAC20242EB5070F5
:1059A00018BF704728BF20F001007047B2F5801F74
:1059B000BCBF184670474FEA410C1CF5001F02D2CD
:1059C000084600F032BF70B500F084FB000000898B
:1059D000FFF7F6BF4FF00040A0F5800070470000D1
:1059E00010B591EA030F48BF83F0004300F104842F
:1059F000841A71EB030C05D2121943EB0C03001B44
:105A000061EB0C01DFF824E14FEA1154A4EB135CC5
:105A10001EEA430F18BF9EEA445F73D023EA0E03C9
:105A2000DCF1200E21EA045143F4801332D322FA30
:105A30000CFE10EB0E0023FA0CFE41EB0E01CCF134
:105A4000200E03FA0EFE10EB0E0051F10001B1F52D
:105A5000801FCCF1200E32D201EB045112FA0EF26B
:105A6000BDE8104058BF7047401C38BF5FEA420293
:105A700018BF7047002814BF20F0010041F1000159
:105A80004FEA410313F5001F38BF7047A1F1C04131
:105A900000F06EBB012A43EB0302ACF1200CDCF1F9
:105AA0001F0E32BF4FF0000E23FA0CF310EB030071
:105AB00041EB0451B4EB115FD0D0A1EB045101F5DF
:105AC000801149085FEA300001EB04510ED350F118
:105AD000000038BF12FA0EFE08D1BDE81040C9E739
